:100000000C9434000C9449000C9449000C94490061
:100010000C9449000C9449000C9449000C9449003C
:100020000C9449000C9449000C9449000C9449002C
:100030000C9449000C9449000C9449000C9449001C
:100040000C9449000C9449000C9449000C9449000C
:100050000C9449000C9449000C9449000C944900FC
:100060000C9449000C94490011241FBECFEFD8E036
:10007000DEBFCDBF13E0A0E0B1E0ECEFF9E002C0DD
:1000800005900D92A03CB107D9F70E9422010C9473
:10009000FC040C940000CF93DF93C82FD82FD69583
:1000A000883C70F081E30E94ED028D2F6AE00E948F
:1000B000DC040E94DC0480E3890F0E94ED0202C090
:1000C000DA3098F78D2F6AE00E94DC0480E3890F14
:1000D0000E94ED0280E091E0C0FD02C08DE091E061
:1000E000DF91CF910C94FB02CF93DF93EC01C031F1
:1000F00087E2D80788F1CE0160E177E20E94E80448
:1001000080E3860F0E94ED02CE0168EE73E00E944C
:10011000E804CB016AE070E00E94E804805D0E9480
:10012000ED02CE0164E670E00E94E804CB016AE0D3
:1001300070E00E94E804805D0E94ED022AE030E059
:10014000CE01B9010E94E804CB01B9010E94E80484
:10015000805D0E94ED020AC0C83E83E0D807A0F689
:10016000C436D105F0F6CA30D10540F7CE016AE0B9
:1001700070E00E94E804805DDF91CF910C94ED0265
:10018000CF93DF930F92CDB7DEB76AE00E94DC0415
:1001900099830E94DC0480E3890F0E94ED0289812B
:1001A000805D0F90DF91CF910C94ED02EF920F9351
:1001B000CF93DF9300D000D0CDB7DEB789836A83B9
:1001C0004B832C838AE191E00E94FB0289810E948B
:1001D000C0008DE20E94ED028A810E94C0008DE283
:1001E0000E94ED028B810E94C00080E20E94ED021D
:1001F0008C810E94C0008AE30E94ED02802F0E9441
:10020000C0008AE30E94ED028E2D0F900F900F9098
:100210000F90DF91CF910F91EF900C94C000CF938E
:10022000DF930F92CDB7DEB70E94FB020E94180346
:10023000898389EB92E00E94FB0289810F90DF9114
:10024000CF910895CDB7DEB72D970FB6F894DEBFE6
:100250000FBECDBF80E890E00FB6F89480936100A8
:10026000909361000FBE0E943B030E94DC02209A23
:1002700082E090E00E949A036C0180E090E00E948E
:100280009A038DE191E00E94FB0285E30E94ED025A
:1002900083E391E00E94FB022FEF33ED40E3215016
:1002A00030404040E1F700C000008FEF93EDE0E305
:1002B00081509040E040E1F700C00000FFEF23EDE7
:1002C00030E3F15020403040E1F700C000004FEF34
:1002D00083ED90E3415080409040E1F700C0000082
:1002E000EFEFF3ED20E3E150F0402040E1F700C0F4
:1002F00000008091C00087FFEFC08091C6008D365E
:1003000009F0EAC080E090E00E949A034C0181E588
:1003100091E00E94FB02C401049767E070E00E9434
:10032000E804CB010E9474008FE791E00E94FB0279
:10033000C6010E94740088E991E00E94FB0285EBEF
:1003400091E00E94FB0289ED91E00E94FB028EEF9A
:1003500091E00E94FB0283E292E00E94FB0287E6AA
:1003600092E00E94FB028BE892E00E94FB0282EA8C
:1003700092E00E94FB020E94F402803709F448C018
:1003800060F48E3309F456C0853609F494C08C337A
:1003900009F442C08BEA93E08BC0833709F498C01C
:1003A000843709F451C08237A9F76CE370E082E02A
:1003B00090E00E94D5038CE3C82ED12CA3CF7E0100
:1003C0003FEFE31AF30A00E010E0C501800F911F30
:1003D0000E947D03F70181937F010F5F1F4F07305C
:1003E000110599F7EE800D812C814B816A818981FD
:1003F0000E94D6008CEB92E00E94FB028F810E944B
:100400004B00F7E0AF0EB11CA814B904C0F27ACFCC
:1004100094E0A92EB12CF8CF2AE0C216D10408F43A
:1004200071CF35E0C31AD108B60182E090E00E9496
:10043000D50368CF48EEC4164DEFD40608F062CF5E
:1004400085E0C80ED11CF0CF8FEB92E00E94FB023A
:1004500084EE92E00E940F0189838FE093E00E9476
:100460000F018A838EE193E00E940F018B838CE25F
:1004700093E00E940F018C838AE393E00E940F01B6
:100480008D838AE493E00E940F018E83CE01019652
:100490000E9494048AE593E00E94FB02EE800D81A5
:1004A0002C814B816A8189810E94D60089EB92E080
:1004B0000E94FB0227CF88E693E00E94FB020E9485
:1004C000FA0364E070E080E090E00E94D503ACCFD6
:1004D0008FE893E00E94FB02FF24F39480E090E019
:1004E0000E949A035C01CE0108960E941C04888534
:1004F000898389858A838A858B838B858C838C8588
:100500008D838D858E830E94490380E90E9452036A
:1005100080E00E9452030E94490381E90E94520335
:100520000E945903182F0E946103082F0E944E0356
:10053000110F07FD11601F83EE800D812C814B810F
:100540006A8189810E94D6008CEB92E00E94FB02B6
:100550008F810E944B00C5010696D2F04E019FEF9D
:10056000891A990A00E010E0F40161914F01C50178
:10057000800F911F0E94B5030F5F1F4F07301105B9
:1005800099F7B501695F7F4F80E090E00E94D50345
:1005900080E090E00DC0FFEF23ED30E3F15020400C
:1005A0003040E1F700C0000025B12F2525B90196A4
:1005B0008C159D0581F792CF1092C50087E6809338
:1005C000C400E0ECF0E080818D7F808388E180933F
:1005D000C10086E08093C20008959091C00095FF0D
:1005E000FCCF8093C60008958091C00087FFFCCFA8
:1005F0008091C6000895CF93DF9300D00F92CDB7BE
:10060000DEB789839A831B82E981FA818B81E80FA7
:10061000F11D8081811106C00F900F900F90DF9126
:10062000CF9108950E94ED028B818F5F8B83ECCF79
:100630000F931F93CF93DF93D0E310E3C0E30D2F0D
:100640000E94F402D82F0E94ED02DD3089F4C053DD
:100650000053802F94E6C99F800D112410539AE017
:10066000199F800D1124DF91CF911F910F91089553
:10067000C12F102FE4CF88E48093B800ECEBF0E0BA
:1006800080818460808308958091BC0087FFFCCFC7
:10069000089584EA8093BC000C94440384E9809319
:1006A000BC0008958093BB0084E88093BC000C9448
:1006B000440384EC8093BC000E9444038091BB00FF
:1006C000089584E88093BC000E9444038091BB009D
:1006D0000895CF93DF9300D0CDB7DEB789839A8397
:1006E00080EA0E9452038A810E94520389810F90FE
:1006F0000F90DF91CF910C945203CF93DF9300D0F2
:10070000CDB7DEB789839A830E94490389819A8194
:100710000E9469030E94490381EA0E9452030E94D9
:10072000610389830E944E0389810F900F90DF91AE
:10073000CF9108950F931F938C010E944903C80124
:100740000E9469030E94490381EA0E9452030E94A9
:100750005903082F0E946103282F302F89010E941E
:100760004E03C8011F910F910895CF93DF9300D0DE
:100770000F92CDB7DEB789839A836B830E944903BA
:1007800089819A810E9469038B810E9452030E9491
:100790004E038FE19EE40197F1F700C000000F9037
:1007A0000F900F90DF91CF910895CF93DF9300D0FA
:1007B00000D0CDB7DEB789839A836B837C830E9498
:1007C000490389819A810E9469038C810E945203A6
:1007D0008B810E9452030E944E038FE19EE4019799
:1007E000F1F700C000000F900F900F900F90DF9175
:1007F000CF9108951F93CF93DF93C0E0D0E00E9484
:100800004903CE010E94690310E480E00E94520374
:100810001150D9F70E944E038FE19EE40197F1F742
:1008200000C00000C05CDF4FC11590E8D90739F760
:10083000DF91CF911F910895CF92DF92EF92FF92B7
:100840000F931F93CF93DF9300D000D000D00F926F
:10085000CDB7DEB78C010E94490380ED0E945203A0
:1008600080E00E9452030E94490381ED0E945203DE
:100870007E018FEFE81AF80A6E01E7E0CE0ED11C78
:100880000E945903F70181937F01CE16DF06C1F75D
:100890000E946103F82E0E944E039981892F829550
:1008A00087702AE09F70829F900D1124F801958334
:1008B0008A81982F929597708F70929F800D112446
:1008C00084838B81982F929593708F70929F800D67
:1008D000112483838D81982F929593708F70929FAE
:1008E000800D112482838E8184FB992790F9919544
:1008F0009A708F70980F91839F2D92959F708F2D76
:100900008F70929F800D1124808327960FB6F894E4
:10091000DEBF0FBECDBFDF91CF911F910F91FF9032
:10092000EF90DF90CF900895CF93DF93EC010E947A
:10093000490380ED0E94520380E00E9452038D81A2
:100940006AE00E94DC048295807F892B0E9452031A
:100950008C816AE00E94DC048295807F892B0E9452
:1009600052038B816AE00E94DC048295807F892B90
:100970000E94520381E00E9452038A816AE00E9431
:10098000DC048295807F892B0E94520389816AE072
:100990000E94DC048295807F892B0E94520388810B
:1009A0006AE00E94DC048295807F892B0E945203BA
:1009B000DF91CF910C944E03992778E0880F991F0F
:1009C000961708F0961B881F7A95C9F780950895A9
:1009D000AA1BBB1B51E107C0AA1FBB1FA617B70765
:1009E00010F0A61BB70B881F991F5A95A9F7809581
:0C09F0009095BC01CD010895F894FFCF54
:1009FC002E3520646567726565730D0A002E3020F4
:100A0C00646567726565730D0A003230002A2A2A04
:100A1C00205072657373205B6D5D20776974686913
:100A2C006E2000207365636F6E647320746F206595
:100A3C006E746572206D656E752E202A2A2A0D0A39
:100A4C00000D0A3D3D3D3D5B204C6F6767696E674D
:100A5C0020546865726D6F6D65746572202B20442F
:100A6C005333323331205D3D3D3D3D0D0A20002096
:100A7C0072656164696E677320696E2045455052DA
:100A8C004F4D2E0D0A202000207365636F6E64732A
:100A9C00206265747765656E2072656164696E6746
:100AAC00732E0D0A00205B3C5D20746F2073686F01
:100ABC007274656E2073616D706C652064656C6119
:100ACC00792074696D650D0A00205B3E5D20746FA2
:100ADC0020696E6372656173652073616D706C65FE
:100AEC002064656C61792074696D650D0A00205B6A
:100AFC00725D20746F2072657365742064656C611F
:100B0C00792074696D6520746F20363020736563AD
:100B1C000D0A00205B745D20746F20736574207463
:100B2C00686520636C6F636B2028646F2074686940
:100B3C0073206F6E6365202D2D2062617474657255
:100B4C00792D6261636B65642061667465722074D3
:100B5C00686174290D0A00205B705D20746F207031
:100B6C0072696E74206F7574206C6F67206F766578
:100B7C00722073657269616C0D0A00205B655D20E3
:100B8C00746F206572617365206D656D6F72790D80
:100B9C000A00205B735D20746F2073746172742083
:100BAC006C6F6767696E670D0A0D0A002C20004593
:100BBC006E7465722065616368206669656C64207B
:100BCC007468656E20707265737320456E746572FF
:100BDC002E0D0A005965617220286C6173742074A3
:100BEC00776F206469676974732C20652E672E20DB
:100BFC00323620666F722032303236293A20004D60
:100C0C006F6E74682028312D3132293A20004461EE
:100C1C0074652028312D3331293A2000486F7572C4
:100C2C002028302D3233293A20004D696E757465B9
:100C3C002028302D3539293A20005365636F6E64B6
:100C4C002028302D3539293A2000436C6F636B20F6
:100C5C0073657420746F2000436C656172696E67F4
:100C6C0020454550524F4D2E20506C6561736520C8
:100C7C007761697420287E332073292E0D0A004F6A
:100C8C004B2C20636F6D6D656E63696E67206C6FA6
:100C9C006767696E672E2E2E0D0A00496E76616CA1
:100CAC0069642073656C656374696F6E2E0D0A0040
:00000001FF
