:100000000C9434000C9449000C9449000C94490061
:100010000C9449000C9449000C9449000C9449003C
:100020000C9449000C9449000C9449000C9449002C
:100030000C9449000C9449000C9449000C9449001C
:100040000C9449000C9449000C9449000C9449000C
:100050000C9449000C9449000C9449000C944900FC
:100060000C9449000C94490011241FBECFEFD8E036
:10007000DEBFCDBF12E0A0E0B1E0ECE6F6E002C0EA
:1000800005900D92A43CB107D9F70E94C0000C94D2
:1000900034030C940000CF93DF93EC01C03187E26E
:1000A000D80788F1CE0160E177E20E94200380E367
:1000B000860F0E940802CE0168EE73E00E942003C2
:1000C000CB016AE070E00E942003805D0E9408027C
:1000D000CE0164E670E00E942003CB016AE070E08C
:1000E0000E942003805D0E9408022AE030E0CE01D9
:1000F000B9010E942003CB01B9010E942003805D59
:100100000E9408020AC0C83E83E0D807A0F6C436A1
:10011000D105F0F6CA30D10540F7CE016AE070E0B3
:100120000E942003805DDF91CF910C940802CF9351
:10013000DF93C82FD82FD695883C70F081E30E94BA
:1001400008028D2F6AE00E9414030E94140380E3CA
:10015000890F0E94080202C0DA3098F78D2F6AE0FA
:100160000E94140380E3890F0E94080280E091E05E
:10017000C0FD02C08DE091E0DF91CF910C9416029A
:1001800000D00F92CDB7DEB780E890E00FB6F894BC
:1001900080936100909361000FBE0E9433020E9421
:1001A000F701209A82E090E00E9492028A839B836A
:1001B00080E090E00E9492028AE191E00E941602A3
:1001C00085E30E94080280E391E00E9416022FEF6F
:1001D00033ED40E3215030404040E1F700C00000E3
:1001E0008FEF93ED20E3815090402040E1F700C075
:1001F00000003FEF43ED80E3315040408040E1F7A5
:1002000000C000009FEF23ED30E3915020403040CC
:10021000E1F700C000004FEF83ED90E341508040D4
:100220009040E1F700C000008091C00087FF53C0FC
:100230008091C6008D3609F04EC080E090E00E94AB
:1002400092027C018EE491E00E941602C70104979D
:100250000E944B0083E791E00E9416028A819B81F5
:100260000E944B008CE891E00E94160289EA91E01E
:100270000E9416028DEC91E00E94160282EF91E03E
:100280000E94160287E192E00E9416028BE392E040
:100290000E94160282E592E00E9416020E940F025E
:1002A000803709F459C070F48E3309F468C085367C
:1002B00009F47BC08C3309F452C08FEA92E00E94AB
:1002C0001602BBCF823709F466C08337B1F783E9E2
:1002D00092E00E941602FF24F39480E090E00E94D6
:1002E00092028C010E94410280E90E944A0280E051
:1002F0000E944A020E94410281E90E944A020E9431
:10030000510289830E945902E82E0E944602998177
:10031000990FE7FC91609983892F0E94970069816A
:10032000C8010E94AD020F3F9FE7190738F4B801DA
:100330006F5F7F4F80E090E00E94CD0280E090E010
:1003400050C0C8010E9475020E9497000F5F1F4FA6
:100350000E151F05B0F371CF04E010E0F9CF2A812C
:100360003B812A30310508F468CF255031092A83B2
:100370003B83B90182E090E00E94CD025ECF8A818A
:100380009B81883E2DEF920708F057CF05968A8310
:100390009B83BC01EFCF6CE370E082E090E00E94B1
:1003A000CD028CE38A831B8248CF8CE692E00E94C8
:1003B00016020E94F20264E070E080E090E00E9489
:1003C000CD026A817B81D6CF2FEF33ED40E3215000
:1003D00030404040E1F700C0000025B12F2525B98D
:1003E00001962A813B818217930771F776CF10928D
:1003F000C50087E68093C400E0ECF0E080818D7F4B
:10040000808388E18093C10086E08093C2000895D4
:100410009091C00095FFFCCF8093C6000895809115
:10042000C00087FFFCCF8091C6000895CF93DF9373
:1004300000D00F92CDB7DEB789839A831B82E98102
:10044000FA818B81E80FF11D8081811106C00F9028
:100450000F900F90DF91CF9108950E9408028B8139
:100460008F5F8B83ECCF88E48093B800ECEBF0E0F7
:1004700080818460808308958091BC0087FFFCCFD9
:10048000089584EA8093BC000C943C0284E9809334
:10049000BC0008958093BB0084E88093BC000C945A
:1004A0003C0284EC8093BC000E943C028091BB0023
:1004B000089584E88093BC000E943C028091BB00B8
:1004C0000895CF93DF9300D0CDB7DEB789839A83A9
:1004D00080EA0E944A028A810E944A0289810F9022
:1004E0000F90DF91CF910C944A02CF93DF9300D00D
:1004F000CDB7DEB789839A830E94410289819A81B0
:100500000E9461020E94410281EA0E944A020E9406
:10051000590289830E94460289810F900F90DF91D2
:10052000CF9108950F931F938C010E944102C8013F
:100530000E9461020E94410281EA0E944A020E94D6
:100540005102082F0E945902282F302F89010E9442
:100550004602C8011F910F910895CF93DF9300D0F9
:100560000F92CDB7DEB789839A836B830E944102D5
:1005700089819A810E9461028B810E944A020E94B5
:1005800046028FE19EE40197F1F700C000000F9052
:100590000F900F90DF91CF910895CF93DF9300D00C
:1005A00000D0CDB7DEB789839A836B837C830E94AA
:1005B000410289819A810E9461028C810E944A02D3
:1005C0008B810E944A020E9446028FE19EE40197BD
:1005D000F1F700C000000F900F900F900F90DF9187
:1005E000CF9108951F93CF93DF93C0E0D0E00E9496
:1005F0004102CE010E94610210E480E00E944A02A2
:100600001150D9F70E9446028FE19EE40197F1F75D
:1006100000C00000C05CDF4FC11590E8D90739F772
:10062000DF91CF911F910895992778E0880F991F46
:10063000961708F0961B881F7A95C9F7809508953C
:10064000AA1BBB1B51E107C0AA1FBB1FA617B707F8
:1006500010F0A61BB70B881F991F5A95A9F7809514
:0C0660009095BC01CD010895F894FFCFE7
:10066C002E3520646567726565730D0A002E302087
:10067C00646567726565730D0A002A2A2A20507218
:10068C00657373205B6D5D2077697468696E2000FB
:10069C00207365636F6E647320746F20656E746570
:1006AC0072206D656E752E202A2A2A0D0A000D0AFD
:1006BC003D3D3D3D5B204C6F6767696E672054681C
:1006CC0065726D6F6D65746572205D3D3D3D3D0DD0
:1006DC000A20002072656164696E677320696E2060
:1006EC00454550524F4D2E0D0A2020002073656356
:1006FC006F6E6473206265747765656E20726561D8
:10070C0064696E67732E0D0A00205B3C5D20746F6C
:10071C002073686F7274656E2073616D706C6520E8
:10072C0064656C61792074696D650D0A00205B3E0F
:10073C005D20746F20696E637265617365207361EF
:10074C006D706C652064656C61792074696D650DE4
:10075C000A00205B725D20746F20726573657420D3
:10076C0064656C61792074696D6520746F20363016
:10077C00207365630D0A00205B705D20746F207020
:10078C0072696E74206F7574206C6F67206F76655C
:10079C00722073657269616C0D0A00205B655D20C7
:1007AC00746F206572617365206D656D6F72790D64
:1007BC000A00205B735D20746F2073746172742067
:1007CC006C6F6767696E670D0A0D0A00436C656193
:1007DC0072696E6720454550524F4D2E20506C6506
:1007EC00617365207761697420287E332073292E0C
:1007FC000D0A004F4B2C20636F6D6D656E63696E37
:10080C0067206C6F6767696E672E2E2E0D0A004984
:10081C006E76616C69642073656C656374696F6E68
:04082C002E0D0A0083
:00000001FF
