:100000000C94D2000C94EF000C94EF000C94F100CF
:100010000C94EF000C94EF000C94EF000C94EF00A4
:100020000C94EF000C94EF000C941F0C0C94EF0058
:100030000C94EF000C94EF000C9441090C94EF0029
:100040000C94EF000C94EF000C94EF000C94EF0074
:100050000C94EF000C94EF000C94EF000C94EF0064
:100060000C94EF000C94EF0000000101010000FF70
:10007000FFFF00666600003C00000000000000007A
:100080000000000000000000000000000000000070
:1000900000000114006666000081423C0000000080
:1000A0000000000000000000000000000000000050
:1000B00000000000011400006666003C4281000060
:1000C0000000000000000000000000000000000030
:1000D000000000000000011460666600001824188B
:1000E0000000000000000000000000000000000010
:1000F000000000000000000001140066660000001F
:100100005AA50000000000000000000000000000F0
:1001100000000000000000000000011400CCCC0032
:1001200000005AA50033330000005AA5000000006B
:1001300000000000000000000000000002060000B7
:100140006600000038000000000000000000000011
:10015000000000000000000000000000000001148A
:1001600042A54200182424180000000000000000EE
:10017000000000000000000000000000000000007F
:100180000114000066000081423C000000000000F5
:10019000000000000000000000000000000000005F
:1001A0000000011411241FBECFEFD8E0DEBFCDBF89
:1001B00012E0A0E0B1E0E8E8F9E102C005900D929C
:1001C000AC31B107D9F722E0ACE1B2E001C01D9239
:1001D000AA38B207E1F70E940C010C94B90C0C94F8
:1001E00000001F921FB61F9211248F939F9380913E
:1001F0001C0281110BC08091840090918500909326
:100200001E0280931D0281E080931C029F918F91BA
:100210001F901FBE1F901895CDB7DEB765970FB61C
:10022000F894DEBF0FBECDBF0E9428080E9444088C
:10023000682F70E080E090E00E94D60606E02091F2
:10024000050130910601409107015091080160912C
:10025000090170910A0180910B0190910C010E949B
:10026000A20400911B0110911C0120911D013091ED
:100270001E0140911F0150912001609121018FE1E9
:1002800092E00E945E082091140130911501409186
:100290001601509117016091180170911901809118
:1002A0001A010E94C20B20910D0130910E01409164
:1002B0000F01509110016091110170911201809114
:1002C00013010E947009809168008160809368002A
:1002D00080916B00826080936B000E944E060E94AA
:1002E0001C0580E090E0BC010E945B070E94380979
:1002F000789410E01D821E821F82188619821A824D
:100300001B821C82612C712C23014201520120911D
:100310000D01298730910E013A8740910F014B87DB
:10032000509110015C87809111018D8720911201FD
:100330002E87309113013F8740911401488B5091D3
:100340001501598B809116018A8B209117012B8BF7
:10035000309118013C8B409119014D8B29853A85CC
:100360004B855C856D857E858F850E94C4090E94C2
:1003700064096B017C018C149D04AE04BF0471F010
:100380008FE192E00E949308813021F4B601C70109
:100390000E94AA0700911C02011171C0012F4601A1
:1003A000570184189508A608B70854E685169104E5
:1003B000A104B10460F0288939894A895B896C8974
:1003C0007D8980911A010E94F50B260137010E9458
:1003D000580C811531F00E945B0CA601B7010E94F8
:1003E000740784E688169104A104B10430F00E94D9
:1003F0008006B601C7010E94F507C601D701298111
:100400003A814B815C81821B930BA40BB50B8897BF
:10041000A105B10560F00E9497060E941F050E9489
:10042000D8040E94DA04C982DA82EB82FC82C60117
:10043000D7012D813E814F815885821B930BA40BE0
:10044000B50B0D97A105B10530F00E94DC04CD82FB
:10045000DE82EF82F88620910D0130910E014091ED
:100460000F01509110016091110170911201809162
:1004700013010E94E709102F460157016FCF111198
:100480008ECF60911D0270911E0280E090E00E946C
:10049000EA0685CF8DE790E00E944507409135023E
:1004A0005091360260913702709138024A5D5F4F79
:1004B0006F4F7F4F480F591F611D711D40933102CF
:1004C000509332026093330270933402089584E6AD
:1004D00090E00E94450740913502509136026091AC
:1004E0003702709138024E5C5F4F6F4F7F4F480F5D
:1004F000591F611D711D40932C0250932D02609372
:100500002E0270932F020895CF93DF93CDB7DEB7FD
:1005100028970FB6F894DEBF0FBECDBF88E0E7E5A1
:10052000F2E0AFE4B2E001900D928A95E1F780919C
:100530004E028115D1F080915F02873069F08630DC
:10054000B9F480913002811539F010925002109266
:10055000510286E68093520228960FB6F894DEBFC9
:100560000FBECDBFDF91CF91089580916002E5CF9E
:10057000877FB9F56091350270913602809137021C
:100580009091380227E030E040E050E00E94910C6A
:10059000B901CA012AE030E040E050E00E94910C2D
:1005A00068597F4FFB0164916115D9F08091540225
:1005B0008983809155028A83809156028B83862F8E
:1005C0008195E4E5F2E093E0961B20E0833028F487
:1005D000DE011196A80FB11D2C9121938F5F891315
:1005E000F4CF80912B02811509F4ABCF90910001DB
:1005F000E0E5F2E023E532E0819119163CF48695BE
:10060000DF018E932E173F07B9F79BCF880FF8CFE6
:10061000CF93DF93CDB7DEB728970FB6F894DEBF40
:100620000FBECDBF29833A834B835C836D837E836A
:100630008F83988788E0FE013196A1E6B2E00190B1
:100640000D928A95E1F71092600210925F02E2E942
:10065000F0E0E491E0933A02E3E9F0E0E491E09322
:10066000390210923C0210923B0210924E021092FC
:100670003502109236021092370210923802109210
:10068000300210922B02E2E7F0E0A7E5B2E084919D
:100690008D93319682E0AF35B807C9F70E944A02C0
:1006A0000E94670228960FB6F894DEBF0FBECDBF3A
:1006B000DF91CF910C948402893020F590915F02F4
:1006C000981701F180935F0298E0E7E5F2E0A5E476
:1006D000B2E001900D929A95E1F792E2899FF001C4
:1006E0001124EE58FF4FADE3B2E085E492E024918F
:1006F0002D9331968A179B07D1F781E080934E02A4
:1007000010924D0208959F92AF92BF92CF92DF92C6
:10071000EF92FF920F931F93CF93DF93C090350218
:10072000D0903602E0903702F09038022FEFC21AD4
:10073000D20AE20AF20AC0923502D0923602E09260
:100740003702F092380280914E02811509F475C08B
:1007500020914D022F5F20934D0238E0239FC0016E
:10076000112465E070E00E947D0CB62EEDE3F2E00E
:1007700065E472E0A7E5B2E0AD0100E810E0A19009
:10078000EB013991BE01A32680E090E08B1578F44F
:10079000E801082E02C0D695C7950A94E2F79C2E70
:1007A0009A2009F03C2701968830910579F7EA01F3
:1007B0003993AE01D2E0E534FD0709F72530C0F4E6
:1007C0008091300281116DC080913102909132028E
:1007D000A0913302B0913402C816D906EA06FB068E
:1007E00008F462C083E0809330020E944A025CC039
:1007F00010924E0280915F028093600222E2829FFB
:10080000C0011124FC01EE56FF4FE491E0933A023F
:10081000FC01ED56FF4FE491E093390210923C0247
:1008200010923B02FC01EE58FF4F84918D9331965C
:1008300032E0AF35B307C9F7C3CF60913A026230F7
:1008400008F4BECF80913B028F5F80933B02909172
:100850003902891708F4B4CF10923B0280913C0210
:1008600090E0019670E00E947D0C80933C02209104
:10087000600242E2249F900111242E583F4FFC0158
:1008800083E0EE0FFF1F8A95E1F7E20FF31FA7E564
:10089000B2E084918D93319682E0AF35B807C9F705
:1008A0008FCF81508093300280912B02811581F08F
:1008B000815080932B02DF91CF911F910F91FF9078
:1008C000EF90DF90CF90BF90AF909F900C948402F8
:1008D0004091350250913602609137027091380292
:1008E00080912C0290912D02A0912E02B0912F02A6
:1008F000481759076A077B07F0F285E080932B02BF
:100900000E940B0760FF06C081E0809300010E94F7
:100910006702D1CF8FEFF9CF8FE492E00E94C80831
:100920002091610230916202409163025091640211
:1009300060916502709166028091670290916802F1
:100940000C94D2080F93CF93DF93CDB7DEB72C97DB
:100950000FB6F894DEBF0FBECDBF298729833A8733
:100960003A834B874B835C875C836D837E838F8365
:1009700098870E944F0B29813A814B815C816D8160
:100980007E818F8198850E94F00A29813A814B816E
:100990005C816D817E818F8198852C960FB6F8944D
:1009A000DEBF0FBECDBFDF91CF910F910C94080336
:1009B0000C945C030C9483030C948C041F93CF93CE
:1009C000DF9390916902E2E2F1E0C0E0D0E02081A3
:1009D000921321C0138181131EC086E08C9FF00109
:1009E0008D9FF00D1124EE5DFE4F0180F281E02D10
:1009F0003097D9F486E08C9FF0018D9FF00D112483
:100A0000EE5DFE4F0480F581E02D309799F4109350
:100A1000690281E006C021963696C832D105B9F642
:100A200080E0DF91CF911F910895CB010995811549
:100A3000B9F3E0CF0995EBCF109269020895CF93F7
:100A4000DF93EC01609169020E949C06909169021B
:100A5000981781F0BE010E94DE04982F80916902F0
:100A6000911108C0843049F4BE0180E00E94DE0488
:100A700080916902DF91CF910895BE0184E00E94C8
:100A8000DE04982F809169029111F4CF811581F3D2
:100A9000EBCF8930E0F4E82FF0E0E554F34F0C940D
:100AA000B30C80E390E0BC01621B710927FD7395D4
:100AB0009B0181E0042E001C0008421703060CF481
:100AC00006C090E008952F5181E04217D4F380E0F2
:100AD000F8CF332723FF339585EF9FEF23FF02C025
:100AE0008DEF9FEF062E001C0008681709067CF7A3
:100AF000311581F024E130E0DCCFE22FFF27E195D2
:100B00000CF4F095062E001C00086E170F06FCF280
:100B100023FFF0CF2CE030E0CCCF882723FF839554
:100B200023FD21C028E130E0062E001C00086217DA
:100B300003066CF228EF3FEF811102C020EF3FEF78
:100B4000042E001C0008421703060CF227E230E0D6
:100B5000811102C02FE230E081E0042E001C000869
:100B600024173005ACCF20E130E0DECF002423FF96
:100B70000394202DF8E02F9FC0011124062E001CA5
:100B80000008681709060CF4A2CF211549F029EFD7
:100B90003FEF81E0042E001C00084217030696CFA9
:100BA00021E030E0F6CF882723FF8395E4EFFFEFC5
:100BB00023FF02C0ECEEFFEF062E001C0008E61734
:100BC000F0050CF084CFEBE0F0E0811102C0E3E12E
:100BD000F0E0062E001C0008E617F0050CF477CFB5
:100BE00091E031E023FD932768E0969F9001112466
:100BF000042E001C0008421703060CF468CF23E102
:100C000030E08111A9CF2BE130E0A6CF882723FF68
:100C1000839523FD1BC025EF3FEF062E001C000827
:100C2000621703060CF053CF20EE811101C028EDAE
:100C3000042E001C0008241730050CF048CF27E0D4
:100C400030E0811189CF2FE030E086CF2DEF3FEFEC
:100C5000E4CF882723FF839523FD1DC024EF3FEFBA
:100C6000062E001C0008261730050CF030CF2BE0B4
:100C700030E0811102C023E130E0062E001C0008A4
:100C8000261730050CF423CF28EF3FEF8111D0CF8A
:100C900020EF3FEFCDCF2CEE3FEFE2CF10926A0274
:100CA00010926B02089520916A02982F990F990B68
:100CB000820F911D27FD9A9581349105CCF4803CDB
:100CC0002FEF9207BCF080936A0280916B02762F1F
:100CD000770F770B680F711D87FD7A956134710569
:100CE0005CF4603C8FEF78074CF060936B020895E2
:100CF00080E4E9CF80ECE7CF60E4F7CF60ECF5CF9C
:100D000080916A02811569F064F0815080936A02D3
:100D100080916B02811541F03CF0815080936B0211
:100D20000895A1F38F5FF2CFC9F38F5FF7CF809162
:100D30006A0290916B0208950F931F93CF93DF93F4
:100D400000D00F92CDB7DEB78A8399836B8390333F
:100D500054F56730A9F402E112E0F801F081FB8359
:100D600020E049816A818F2F0E944905892B91F4E7
:100D70000F5F1F4F82E00B31180779F71B820AC003
:100D80008B81893040F728E049816A810E944905BA
:100D9000892B09F38B810F900F900F90DF91CF91EA
:100DA0001F910F910895E7E0EB83F4CFAB01BC01F5
:100DB000411551056105710521F44EEE5FEF60ECC0
:100DC00070E040930101509302016093030170931E
:100DD0000401089520910101309102014091030125
:100DE00050910401261737074807590779F0DC01AD
:100DF000CB0182279327A427B527809301019093E5
:100E00000201A0930301B093040108958FEE9EEBBD
:100E1000ADEABEEDF2CF0F931F93409101015091C7
:100E20000201609103017091040180E0942FA52FCD
:100E3000B62F25E0880F991FAA1FBB1F2A95D1F74F
:100E400084279527A627B727AD0156954795842770
:100E50009527AC01BD01E5E0440F551F661F771FC4
:100E6000EA95D1F78A019B01082719272A273B27F2
:100E7000B801C901609301017093020180930301DD
:100E8000909304011F910F910895CF93DF9300D0A9
:100E9000CDB7DEB789839A830E940B07E981FA8177
:100EA0009F0140E050E00E94910CCB010F900F9009
:100EB000DF91CF91089510927502109276021092F0
:100EC0007702609371027093720280937302909321
:100ED00074021092700260936C0270936D028093A2
:100EE0006E0290936F020895CF93DF93EC0180E040
:100EF000C739D10528F5409371025093720260936F
:100F0000730270937402809175028115A1F0809133
:100F10007602909177028C1B9D0B84319105ACF089
:100F200060E38CEF0E945306CB30D10520F46CE0D7
:100F300086EF0E945306C0937602D093770281E039
:100F400080937502DF91CF91089504976CF36AE066
:100F500082E0E8CFCF92DF92EF92FF926B017C01AB
:100F600064E08CE00E945306C0927102D09272023B
:100F7000E0927302F092740280916C0290916D0283
:100F8000A0916E02B0916F029601A701281B390B48
:100F90004A0B5B0BC901DA01813D9740A105B10500
:100FA00050F0C0926C02D0926D02E0926E02F0920C
:100FB0006F0210927002809170028F5F80937002B6
:100FC000833070F060E08EE10E9453061092700250
:100FD000C0926C02D0926D02E0926E02F0926F02AB
:100FE000FF90EF90DF90CF900895CF92DF92EF9235
:100FF000FF92C0907102D0907202E0907302F09064
:1010000074029B01AC012C193D094E095F0969016D
:101010007A0130E3C31635E7D306E104F10498F012
:1010200060E08EEF0E94530640E6C4164AEED406F6
:10103000E104F10440F06DEF80E0FF90EF90DF906D
:10104000CF900C945306FF90EF90DF90CF900895CF
:1010500080E480937C0087E880937A000895ECE731
:10106000F0E09081907F8F70982B90830895EAE74D
:10107000F0E0808180648083089580917A0000246C
:1010800086FF0394802D0895CF93DF9380E00E9424
:101090002F08C0E0D0E10E9437080E943D0881156A
:1010A000E1F3CC0F80917800909179008370C8278C
:1010B000D15089F78C2FDF91CF9108950F931F9313
:1010C000CF93DF9300D000D000D00F92CDB7DEB722
:1010D00009831A832B833C834D835E836F8327E0D0
:1010E000FE013196DC0101900D922A95E1F721E095
:1010F000FC012783108611861286138601E0298160
:101100003A814B815C816D817E818F810E94930940
:1011100027960FB6F894DEBF0FBECDBFDF91CF91FB
:101120001F910F910895CF93DF93EC0128813981AE
:101130004A815B816C817D818E810E940B0A9F8137
:10114000981314C0188691111DC08B8581111AC087
:1011500089859A85019689879A878032934090F095
:1011600081E08B8782E0DF91CF91089598859F5F22
:1011700098879F3038F08F831886811105C01986B3
:101180001A861B8680E0EFCF8B8591E08927EBCF15
:10119000FC01A8E7B2E0089621912D93E817F90722
:1011A000D9F70895CF92DF92EF92FF920F931F939A
:1011B000CF93DF93CDB7DEB761970FB6F894DEBF5C
:1011C0000FBECDBF2A873B874C875D876E877F87A1
:1011D000888B998B6E018FEFC81AD80AD60140E030
:1011E00050E061E070E08B01042E01C0000F0A9412
:1011F000EAF7E8E7F2E027E030E0F12C819190E0B7
:101200008023892B39F0862F022E01C0880F0A9483
:10121000EAF7F82A2150310988F7FD924F5F5F4FB6
:101220004830510501F710E0F60181916F0189877F
:101230001F5FCE0109967C01012F2A853B854C85D5
:101240005D856E857F85888999890E943D0A183061
:1012500059F761960FB6F894DEBF0FBECDBFDF9190
:10126000CF911F910F91FF90EF90DF90CF90089555
:1012700082E084BD93E095BD99EF97BD80936E00A9
:1012800008951F921FB61F9211248F939F93AF93BF
:10129000BF938091800290918102A0918202B091CF
:1012A00083020196A11DB11D80938002909381025B
:1012B000A0938202B0938302BF91AF919F918F91CF
:1012C0001F901FBE1F9018952FB7F8946091800251
:1012D0007091810280918202909183022FBF0895C4
:1012E000CF93DF9300D000D000D00F92CDB7DEB700
:1012F00029833A834B835C836D837E838F83E9816B
:10130000FA8180819F8121E001C0220F9A95EAF73E
:10131000822B808327960FB6F894DEBF0FBECDBF19
:10132000DF91CF9108950F93CF93DF9300D000D03A
:1013300000D00F92CDB7DEB729833A834B835C830D
:101340006D837E838F83A981BA81EB81FC812C918F
:10135000382F81E001C0880F3A95EAF7382F309591
:1013600023232C93011569F09081892B8083279684
:101370000FB6F894DEBF0FBECDBFDF91CF910F91B6
:10138000089580818323F2CFCF93DF9300D000D0E4
:1013900000D00F92CDB7DEB729833A834B835C83AD
:1013A0006D837E838F83EB81FC8180819F8121E02F
:1013B00001C0220F9A95EAF7822B808327960FB6F9
:1013C000F894DEBF0FBECDBFDF91CF910895CF93CC
:1013D000DF9300D000D000D00F92CDB7DEB72983C5
:1013E0003A834B835C836D837E838F83EB81FC81A7
:1013F0002081382F81E001C0880F3A95EAF7809567
:101400008223808327960FB6F894DEBF0FBECDBF30
:10141000DF91CF910895CF93DF9300D000D000D01B
:101420000F92CDB7DEB729833A834B835C836D83FC
:101430007E838F83ED81FE81808190E02F8102C0C9
:10144000959587952A95E2F7817027960FB6F894BF
:10145000DEBF0FBECDBFDF91CF91089584B18C6206
:1014600084B981E58CBD8DB58E7F8DBD08958EBD0F
:101470000DB407FEFDCF8EB50895EF92FF920F9346
:101480001F93CF93DF93CDB7DEB763970FB6F89472
:10149000DEBF0FBECDBF29873A874B875C876D873C
:1014A0007E878F87988B098BEA8AFB8AF92E88E0E2
:1014B000FE0139968E010F5F1F4FD80101900D92EA
:1014C0008A95E1F729813A814B815C816D817E812A
:1014D0008F810E94E709E02EF1101EC088E0FE0116
:1014E0003996AE2DB12F01900D928A95E1F72981A1
:1014F0003A814B815C816D817E818F8163960FB6CD
:10150000F894DEBF0FBECDBFDF91CF911F910F9139
:10151000FF90EF900C94C409FA9489890E94370ACD
:10152000EA89FB89EF0DF11D80810E94370AD4CF33
:10153000EF92FF920F931F93CF93DF93CDB7DEB758
:1015400063970FB6F894DEBF0FBECDBF29873A87E9
:101550004B875C876D877E878F879A8B988BEB8A0A
:1015600088E0FE0139967E019FEFE91AF90AD7015A
:1015700001900D928A95E1F729813A814B815C8136
:101580006D817E818F810E94E70910E0E98A8A8956
:1015900018131EC088E0FE013996A989BF2D01905D
:1015A0000D928A95E1F729813A814B815C816D81A9
:1015B0007E818F8163960FB6F894DEBF0FBECDBFDC
:1015C000DF91CF911F910F91FF90EF900C94C40980
:1015D000802F0E94370A8B890E94370A1F5FD7CF5E
:1015E000EF920F93CF93DF93CDB7DEB728970FB667
:1015F000F894DEBF0FBECDBF29833A834B835C8353
:101600006D837E838F839887003108F00FE0E02E92
:101610000AE029813A814B815C816D817E818F81D5
:1016200098850E94980A28960FB6F894DEBF0FBEE0
:10163000CDBFDF91CF910F91EF900895EF920F936F
:101640001F93CF93DF93CDB7DEB728970FB6F894EB
:10165000DEBF0FBECDBF29833A834B835C836D838E
:101660007E838F83988710E01F5FE12C012F2981F3
:101670003A814B815C816D817E818F8198850E944A
:10168000980A183089F728960FB6F894DEBF0FBE77
:10169000CDBFDF91CF911F910F91EF900895EF9201
:1016A0000F93CF93DF93CDB7DEB729970FB6F8949A
:1016B000DEBF0FBECDBF298729833A834B835C836E
:1016C0006D837E838F8398870E94700929813A8178
:1016D0004B815C816D817E818F810E94C4090E9453
:1016E0002E0AE12C0FE029813A814B815C816D81CA
:1016F0007E818F8198850E94980A09E029813A812C
:101700004B815C816D817E818F8198850E94980AD2
:1017100087E0E82E0BE029813A814B815C816D8165
:101720007E818F8198850E94980A0AE029813A81FA
:101730004B815C816D817E818F8198850E94980AA2
:1017400029813A814B815C816D817E818F81988571
:101750000E941E0BEE24E3940CE029813A814B8118
:101760005C816D817E818F8198850E94980A29967F
:101770000FB6F894DEBF0FBECDBFDF91CF910F91B2
:10178000EF900895CF93DF93CDB7DEB729970FB6CB
:10179000F894DEBF0FBECDBF2887298339873A83EF
:1017A0004B835C836D837E838F830E9470092981C4
:1017B0003A814B815C816D817E818F810E94E70936
:1017C00020981092800083EC8093810080E286BB99
:1017D00080936F001092840229960FB6F894DEBFB2
:1017E0000FBECDBFDF91CF910895CF93DF93CDB7DB
:1017F000DEB729970FB6F894DEBF0FBECDBF28879E
:10180000298339873A834B835C836D837E838F83FF
:101810000E94C40985E38A95F1F7000029813A8185
:101820004B815C816D817E818F8129960FB6F89402
:10183000DEBF0FBECDBFDF91CF910C94E7091F92A1
:101840001FB61F9211242F933F938F939F938091E4
:1018500086009091870020918402211116C09093F8
:1018600089028093880281E08093840280918100C4
:101870008F7B8093810080E286BB9F918F913F9107
:101880002F911F901FBE1F901895209188023091B4
:101890008902821B930B909387028093860281E0DA
:1018A0008093850210928402809181008064E1CF50
:1018B0008091850208958FB7F894609186027091A7
:1018C0008702109285028FBFCB0101978037974125
:1018D00088F480E090E022E0660F771F881F991F50
:1018E0002A95D1F72AE330E040E050E00E94910CC5
:1018F000C90108958FEF9FEF0895AA1BBB1B51E10B
:1019000007C0AA1FBB1FA617B70710F0A61BB70B6F
:10191000881F991F5A95A9F780959095BC01CD0114
:101920000895A1E21A2EAA1BBB1BFD010DC0AA1F20
:10193000BB1FEE1FFF1FA217B307E407F50720F038
:10194000A21BB30BE40BF50B661F771F881F991FB3
:101950001A9469F760957095809590959B01AC01FC
:10196000BD01CF010895EE0FFF1F0590F491E02D0A
:101970000994F894FFCF29068D0506067D05D30549
:08198000690563055105B60578
:1019880001EEFFC00024002500230002012A002BDD
:10199800002900032A002B00290004240025002325
:1019A800000100000007000001000007000002001D
:1019B8000007000003000007000004000007000003
:1019C80005000007000006000007000008000007E7
:1019D80000000700000300000700000000000000EE
:1019E80000010000000000020000000000030000E9
:1019F80000000004000000000006000000000008CD
:101A080000000400000500000400000300000400BA
:101A180000010000040000020000040000000000B3
:101A2800010000040000010000080000010000009F
:101A38000000080000010000080000000000080085
:101A48000006000008000004000003000005000074
:101A58000300000400000300000100000300000070
:101A68000000050000040000050000030000050058
:101A78000000000002000000000002000004000056
:101A88000200000600000600000000000600000832
:0C1A98000000070605030108040200001E
:00000001FF
