:100000000C9449000C9466000C9466000C946600F5
:100010000C9466000C9496050C9466000C94F70200
:100020000C9466000C9466000C9466000C946600B8
:100030000C9466000C9466000C94E6060C94660022
:100040000C9466000C9466000C9466000C94660098
:100050000C9466000C9466000C9466000C94660088
:100060000C9466000C946600080764007805640030
:10007000E803B40040067800D00778006009C800A3
:10008000B004280008073C003F065B4F666D7D0703
:100090007F6F11241FBECFEFD8E0DEBFCDBF11E0D0
:1000A000A0E0B1E0ECEFF0E102C005900D92AA38BB
:1000B000B107D9F721E0AAE8B1E001C01D92A73D40
:1000C000B207E1F70E94E5050C947C080C9400004F
:1000D0000F93CF93DF9300D000D000D00F92CDB715
:1000E000DEB729833A834B835C836D837E838F8362
:1000F00087E0FE013196A7E9B1E001900D928A9563
:10010000E1F701E020919701309198014091990128
:1001100050919A0160919B0170919C0180919D0189
:100120000E94690727960FB6F894DEBF0FBECDBFB9
:10013000DF91CF910F91089545E050E060E070E0CD
:1001400083E991E00E941507811509F460C02091B0
:100150009701309198014091990150919A016091D5
:100160009B0170919C0180919D010E94E10721E01B
:10017000822790919201891329C080919101833047
:1001800050F58F5F80939101833029F18091900128
:100190008115E9F180918B01811139C00E94090715
:1001A00020918C0130918D0140918E0150918F01F1
:1001B000621B730B840B950B603D774081059105A5
:1001C00030F181E080938B0182E01FC08093920127
:1001D00020939101DBCF809190019817B9F2909311
:1001E0009001911569F00E94090760938C0170934A
:1001F0008D0180938E0190938F0110928B01C6CF59
:1002000080918B01811103C081E080938A01089560
:1002100080918A0110928A010895CF93DF9300D0D4
:1002200000D0CDB7DEB789839A836B837C8320911E
:100230009E0130919F014091A0015091A1016091D8
:10024000A2017091A3018091A4010E9446078981B7
:100250009A819C0140E050E084E0220F331F441F4C
:10026000551F8A95D1F760E074E284EF90E00E9418
:1002700024081092810080E480938000C901DA0193
:100280000197A109B109109711F08FEF9FEF90939B
:100290008900809388008AE0809381000E9409078A
:1002A0002B813C81620F731F811D911D6093AA01F8
:1002B0007093AB018093AC019093AD0181E080938A
:1002C000A9010F900F900F900F90DF91CF9108959B
:1002D0000F93109281001092800020919E01309126
:1002E0009F014091A0015091A1016091A2017091E4
:1002F000A3018091A4010E94BD0700E020919E010E
:1003000030919F014091A0015091A1016091A20103
:100310007091A3018091A4010E9469071092A90124
:100320001092A6010F910895CF93DF9300D000D0D3
:1003300000D00F92CDB7DEB729833A834B835C831D
:100340006D837E838F8387E0FE013196AEE9B1E055
:1003500001900D928A95E1F727960FB6F894DEBFCB
:100360000FBECDBFDF91CF910C94680124E0829F36
:10037000C00111242091A7013091A801280F391F35
:10038000F90185919591F9013296659175910097E2
:1003900011F40C9468010C940D01009711F0611197
:1003A00002C00C9468018093A7019093A801609308
:1003B000A6011092A50180E00C94B6018091A901DC
:1003C0008115E1F00E9409072091AA013091AB014B
:1003D0004091AC015091AD016217730784079507F6
:1003E00068F08091A5018F5F9091A601891720F494
:1003F0008093A5010C94B6010C9468010895909126
:10040000A90181E0911101C080E0089582E080930C
:10041000B00094E09093B10099EF9093B300809373
:10042000700008950F931F93CF93DF9300E010E0C7
:1004300087E0809FE001819FD00D1124C15EDE4FD7
:10044000288139814A815B816C817D818E810E9406
:100450004607288139814A815B816C817D818E814B
:100460000E94BD070F5F1F4F0830110509F700E01C
:1004700010E087E0809FE001819FD00D1124CD5FC7
:10048000DE4F288139814A815B816C817D818E813B
:100490000E944607288139814A815B816C817D8178
:1004A0008E810E94BD070F5F1F4F0430110509F7B1
:1004B000DF91CF911F910F910C9406021F93CF9360
:1004C000DF9310927000C0E0D0E017E01C9FF001B5
:1004D0001D9FF00D1124ED5FFE4F2081318142817F
:1004E00053816481758186810E94BD072196C43045
:1004F000D10561F7DF91CF911F910895E0EBF1E015
:1005000010821182128213821092AF01089580939B
:10051000AF010895EF92FF920F931F93CF93DF9354
:1005200000D000D0CDB7DEB79C017E018FEFE81A76
:10053000F80A84E0D7011D928A95E9F78E010B5FD6
:100540001F4FC9016AE070E00E941008FC01E857E3
:10055000FF4FE491D801EE938D012A30310520F050
:100560009B01EA16FB0669F789818093B0018A81B5
:100570008093B1018B818093B2018C818093B30110
:100580001092AF010F900F900F900F90DF91CF91CD
:100590001F910F91FF90EF900895843608F083E645
:1005A000262F6C3308F02BE36AE00E940408E82F42
:1005B000F0E0E857FF4FE491E093B001E92FF0E05D
:1005C000E857FF4FE491E093B101822F0E940408A5
:1005D000E82FF0E0E857FF4FE491E093B201E92FF4
:1005E000F0E0E857FF4FE491E093B30108951F92C4
:1005F0000F920FB60F921124EF92FF920F931F9359
:100600002F933F934F935F936F937F938F939F931A
:10061000AF93BF93CF93DF93EF93FF93E091AE013E
:1006200027E0E29FF0011124ED5FFE4F2081318130
:10063000428153816481758186810E94BD078091CA
:10064000AE018F5F83708093AE01E82FF0E0E0553C
:10065000FE4FF080813029F48091AF018195807840
:10066000F82AC0E0D0E001E087E0E82E802F0C2ED1
:1006700001C0880F0A94EAF78F21EC9EF001ED9EED
:10068000F00D1124E15EFE4F2081318142815381C2
:1006900064817581811579F186810E949A0721967E
:1006A000C830D10519F7E091AE0187E0E89FF0016D
:1006B0001124ED5FFE4F208131814281538164819D
:1006C000758186810E949A07FF91EF91DF91CF910A
:1006D000BF91AF919F918F917F916F915F914F915A
:1006E0003F912F911F910F91FF90EF900F900FBEB0
:1006F0000F901F90189586810E94BD07D0CF209142
:10070000BB013091BC014091BD015091BE0160918F
:10071000BF017091C0018091C1010C94BD0780910F
:10072000B8019091B9016CE370E00E941008962F17
:10073000682F892F0E94CD02809100010C948702BE
:100740008093B8019093B9010E9409076093B401A6
:100750007093B5018093B6019093B70181E08093C7
:1007600000010C948F031092BA010E947F030C9435
:100770007E0248EE53E060E070E084EB91E00E947E
:1007800015078115D9F08091000191E089278093A8
:1007900000018091B8019091B901009729F001976B
:1007A0008093B8019093B9010E948F0381E020915A
:1007B000B8013091B901232B09F080E00895CF935F
:1007C000DF9300D000D000D00F92CDB7DEB72983E1
:1007D0003A834B835C836D837E838F8387E0FE0146
:1007E0003196ABEBB1E001900D928A95E1F7209143
:1007F000BB013091BC014091BD015091BE0160919F
:10080000BF017091C0018091C1010E9446070E9402
:100810007F030E947C0661E071E082E091E00E942B
:100820009A0620910201822F90E0211119C081E0E7
:100830008093020140910101242F30E0411115C045
:1008400021E02093010121E02093BA0127960FB601
:10085000F894DEBF0FBECDBFDF91CF910C948A021A
:10086000843691052CF383E6E3CF2D3331054CF329
:100870002CE3E7CFCF93C62F9091BA01923009F4C1
:1008800040C068F4911114C08C2BC9F181E08093B1
:10089000BA018091020190E0CF910C948A029330CA
:1008A00009F462C0943009F483C0CF910C94B3036F
:1008B000811581F020910201982F990F990B820FD9
:1008C000911D181619069CF081E090E080930201BA
:1008D0000E948A02C13089F462E080E890E00E94C0
:1008E000CD0182E08093BA0180910101D4CF84369A
:1008F000910564F383E690E0E9CFC230B1F2CF9185
:100900000895811581F020910101982F990F990B7D
:10091000820F911D181619060CF181E090E080936A
:1009200001010E948A02C13041F76091010180916A
:1009300002010E94B90662E080E890E00E94CD01C9
:1009400083E08093BA010E947F03809102012CE32F
:10095000829FC0011124CF910C94A0038D33910587
:10096000F4F28CE390E0DBCF623009F49ECF0E947A
:10097000B903811521F22091BB013091BC01409156
:10098000BD015091BE016091BF017091C001809185
:10099000C1010E949A0763E084E790E00E94CD01C4
:1009A0000E94CC0684E08093BA0180910101CFCFF0
:1009B000623041F463E088E690E00E94CD010E943D
:1009C0007F0373CF0E94B903811509F498CFF2CF4A
:1009D00081E09091BA01911180E00895CF93DF9367
:1009E0000F92CDB7DEB72091CC013091CD0140916F
:1009F000CE015091CF016091D0017091D1018091D1
:100A0000D2010E94E10789832091C5013091C6017E
:100A10004091C7015091C8016091C9017091CA010C
:100A20008091CB010E94E1079981990F892B0F904A
:100A3000DF91CF910895AF92BF92CF92DF92EF9264
:100A4000FF920F93CF93DF93CDB7DEB72E970FB6FC
:100A5000F894DEBF0FBECDBF29833A834B835C83FE
:100A60006D837E838F83A886B986CA86DB86EC86F3
:100A7000FD860E8787E0FE013196ACECB1E0019077
:100A80000D928A95E1F787E0FE013896A5ECB1E07A
:100A900001900D928A95E1F701E02091CC0130910F
:100AA000CD014091CE015091CF016091D001709164
:100AB000D1018091D2010E9469072091C501309136
:100AC000C6014091C7015091C8016091C901709160
:100AD000CA018091CB010E9469070E94EE048093B5
:100AE000C4011092C3011092C201EDE6F0E08081D2
:100AF0008C618083E8E68081846080832E960FB6C7
:100B0000F894DEBF0FBECDBFDF91CF910F91FF9064
:100B1000EF90DF90CF90BF90AF9008959FB7F8947B
:100B20008091C2011092C2019FBF08951F920F923F
:100B30000FB60F9211242F933F934F935F936F93B0
:100B40007F938F939F93AF93BF93EF93FF930E94F5
:100B5000EE04E091C4018093C4019091C301EE0FB3
:100B6000EE0FE82BF0E0E95AFE4F8081890F809369
:100B7000C3018091C3018430DCF08091C2018F5F9A
:100B80008093C2018091C30184508093C301FF917F
:100B9000EF91BF91AF919F918F917F916F915F91F5
:100BA0004F913F912F910F900FBE0F901F9018956E
:100BB0008091C3018D3F5CF78091C2018150809389
:100BC000C2018091C3018C5FE0CF0E94DD060E94CC
:100BD000120220917C0130917D0140917E01509163
:100BE0007F016091800170918101809182010E945A
:100BF0009401A0906E01B0906F01C0907001D090F0
:100C00007101E0907201F0907301009174012091E4
:100C10007501309176014091770150917801609192
:100C2000790170917A0180917B010E941B052091CE
:100C30006701309168014091690150916A016091AA
:100C40006B0170916C0180916D010E946800209190
:100C5000830130918401409185015091860160911A
:100C6000870170918801809189010E94DF03789447
:100C70000E949C000E94DE010E940801082F0E9431
:100C80008E05602F0E943A040E94E804811581F3CA
:100C90000E94FF018111ECCF0E944F06E9CF0E9414
:100CA0005E020E946801E4E6F0E080818062808359
:100CB000808188608083808180648083808181607E
:100CC000808383B7817F846083BFF89483B781601A
:100CD00083BF7894889583B78E7F83BF80818F7D13
:100CE00080838081877F808380818F7B80838081E8
:100CF0008E7F80830C94060284E090E00E944E0870
:100D00008D349544B1F069E183E090E00E9454088D
:100D100065E082E090E00E94540860E070E080E0CE
:100D200090E00E9466086DE475E484E090E00C9425
:100D300066080895CF93DF9300D000D0CDB7DEB71B
:100D400089839A836B837C8383E090E00E944608CA
:100D5000E981FA81808382E090E00E944608EB817D
:100D6000FC8180830F900F900F900F90DF91CF91B7
:100D70000895CF93DF930F92CDB7DEB76983682FC5
:100D800083E090E00E945408698182E090E00F9037
:100D9000DF91CF910C945408CF93DF9380E090E0E3
:100DA0000E944E08EC012196BE0180E090E00E9476
:100DB0006608CE01DF91CF91089582E084BD93E073
:100DC00095BD99EF97BD80936E0008951F921FB651
:100DD0001F9211248F939F93AF93BF938091D30160
:100DE0009091D401A091D501B091D6010196A11D99
:100DF000B11D8093D3019093D401A093D501B093FA
:100E0000D601BF91AF919F918F911F901FBE1F90F0
:100E100018952FB7F8946091D3017091D401809107
:100E2000D5019091D6012FBF0895CF92DF92EF9216
:100E3000FF920F931F93CF93DF93EC016A017B0125
:100E40000E940907088119812A813B81AB01BC01FD
:100E5000401B510B620B730B80E04C155D056E055A
:100E60007F0558F0C801D9018C0D9D1DAE1DBF1D19
:100E700088839983AA83BB8381E0DF91CF911F91FF
:100E80000F91FF90EF90DF90CF900895CF93DF9375
:100E900000D000D000D00F92CDB7DEB729833A83BF
:100EA0004B835C836D837E838F83E981FA818081AC
:100EB0009F8121E001C0220F9A95EAF7822B80835F
:100EC00027960FB6F894DEBF0FBECDBFDF91CF914E
:100ED00008950F93CF93DF9300D000D000D00F92EE
:100EE000CDB7DEB729833A834B835C836D837E83E2
:100EF0008F83A981BA81EB81FC812C91382F81E00D
:100F000001C0880F3A95EAF7382F309523232C93A8
:100F1000011569F09081892B808327960FB6F8948C
:100F2000DEBF0FBECDBFDF91CF910F9108958081BD
:100F30008323F2CFCF93DF9300D000D000D00F9265
:100F4000CDB7DEB729833A834B835C836D837E8381
:100F50008F83EB81FC8180819F8121E001C0220F82
:100F60009A95EAF7822B808327960FB6F894DEBF16
:100F70000FBECDBFDF91CF910895CF93DF9300D007
:100F800000D000D00F92CDB7DEB729833A834B83D0
:100F90005C836D837E838F83EB81FC812081382F7E
:100FA00081E001C0880F3A95EAF78095822380831B
:100FB00027960FB6F894DEBF0FBECDBFDF91CF915D
:100FC0000895CF93DF9300D000D000D00F92CDB71B
:100FD000DEB729833A834B835C836D837E838F8363
:100FE000ED81FE81808190E02F8102C095958795EB
:100FF0002A95E2F7817027960FB6F894DEBF0FBEF0
:10100000CDBFDF91CF910895992778E0880F991F80
:10101000961708F0961B881F7A95C9F78095089552
:10102000AA1BBB1B51E107C0AA1FBB1FA617B7070E
:1010300010F0A61BB70B881F991F5A95A9F780952A
:101040009095BC01CD010895A1E21A2EAA1BBB1BED
:10105000FD010DC0AA1FBB1FEE1FFF1FA217B30784
:10106000E407F50720F0A21BB30BE40BF50B661F9A
:10107000771F881F991F1A9469F76095709580955E
:1010800090959B01AC01BD01CF010895F999FECF68
:1010900092BD81BDF89A992780B50895A8E1B0E086
:1010A00042E050E00C946E08262FF999FECF92BDD5
:1010B00081BDF89A019700B4021639F01FBA20BD1D
:1010C0000FB6F894FA9AF99A0FBE08950196272F51
:1010D0000E9455080C945408DC01CB01FC01F999DD
:1010E000FECF06C0F2BDE1BDF89A319600B40D9274
:0C10F00041505040B8F70895F894FFCF2D
:1010FC0001051924002500230002240025002300EB
:10110C0003240025002300042400250023000527C8
:10111C0000280026000027002800260001270028B0
:10112C00002600022700280026000327002800269E
:10113C000004270028002600052A002B00290005A2
:10114C002A002B0029000600FF0100010000FFFF10
:10115C000000010001FF002A002B002900042A00D6
:10116C002B002900032A002B002900022400250053
:0A117C0023000124002500230000D9
:00000001FF
