:100000000C9434000C9451000C9451000C94510049
:100010000C9451000C9408010C9451000C94530062
:100020000C9451000C9451000C9451000C9451000C
:100030000C9451000C9451000C94AA010C945100A2
:100040000C9451000C9451000C9451000C945100EC
:100050000C9451000C9451000C9451000C945100DC
:100060000C9451000C94510011241FBECFEFD8E026
:10007000DEBFCDBF11E0A0E0B1E0E8EBF4E002C0EC
:1000800005900D92A83BB107D9F721E0A8EBB1E0AC
:1000900001C01D92A33DB207E1F70E9457010C94E5
:1000A0005A020C9400001F920F920FB60F92112467
:1000B000EF92FF920F931F932F933F934F935F9372
:1000C0006F937F938F939F93AF93BF93CF93DF9360
:1000D000EF93FF93E091B80127E0E29FF001112434
:1000E000E050FF4F208131814281538164817581CD
:1000F00086810E94F0018091B8018F5F83708093A8
:10010000B801E82FF0E0E654FE4FF080813029F48A
:100110008091B90181958078F82AC0E0D0E001E0B3
:1001200087E0E82E802F0C2E01C0880F0A94EAF792
:100130008F21EC9EF001ED9EF00D1124E45EFE4F48
:10014000208131814281538164817581811579F1EA
:1001500086810E9413022196C830D10519F7E091DB
:10016000B80187E0E89FF0011124E050FF4F2081A3
:100170003181428153816481758186810E9413029D
:10018000FF91EF91DF91CF91BF91AF919F918F91AF
:100190007F916F915F914F913F912F911F910F919F
:1001A000FF90EF900F900FBE0F901F9018958681D3
:1001B0000E94F001D0CFCF93DF930F92CDB7DEB77F
:1001C0002091C8013091C9014091CA015091CB01E1
:1001D0006091CC017091CD018091CE010E943702D7
:1001E00089832091C1013091C2014091C301509196
:1001F000C4016091C5017091C6018091C7010E9440
:1002000037029981990F892B0F90DF91CF91089533
:100210001F920F920FB60F9211242F933F934F937B
:100220005F936F937F938F939F93AF93BF93EF935E
:10023000FF930E94DB00E091C0018093C001909188
:10024000BF01EE0FEE0FE82BF0E0EC5AFE4F80817D
:10025000890F8093BF018091BF018430DCF08091D1
:10026000BE018F5F8093BE018091BF018450809357
:10027000BF01FF91EF91BF91AF919F918F917F91BE
:100280006F915F914F913F912F910F900FBE0F9003
:100290001F9018958091BF018D3F5CF78091BE0142
:1002A00081508093BE018091BF018C5FE0CF00E060
:1002B00010E087E0809FE001819FD00D1124C0589D
:1002C000DE4F288139814A815B816C817D818E81FD
:1002D0000E94CD01288139814A815B816C817D81B9
:1002E0008E810E9413020F5F1F4F0830110509F71E
:1002F00000E010E087E0809FE001819FD00D112495
:10030000CC59DE4F288139814A815B816C817D81A6
:100310008E810E94CD01288139814A815B816C8167
:100320007D818E810E94F0010F5F1F4F0430110507
:1003300009F7209164013091650140916601509167
:100340006701609168017091690180916A010E9462
:100350001302FFCF1F921FB61F9211248F939F93FA
:10036000AF93BF938091CF019091D001A091D10123
:10037000B091D2010196A11DB11D8093CF01909340
:10038000D001A093D101B093D201BF91AF919F91C1
:100390008F911F901FBE1F901895CF93DF9300D0B1
:1003A00000D000D00F92CDB7DEB729833A834B83BC
:1003B0005C836D837E838F83E981FA8180819F8155
:1003C00021E001C0220F9A95EAF7822B80832796BD
:1003D0000FB6F894DEBF0FBECDBFDF91CF91089569
:1003E000CF93DF9300D000D000D00F92CDB7DEB70F
:1003F00029833A834B835C836D837E838F83EB8178
:10040000FC8180819F8121E001C0220F9A95EAF74B
:10041000822B808327960FB6F894DEBF0FBECDBF28
:10042000DF91CF910895CF93DF9300D000D000D01B
:100430000F92CDB7DEB729833A834B835C836D83FC
:100440007E838F83EB81FC812081382F81E001C086
:10045000880F3A95EAF780958223808327960FB616
:10046000F894DEBF0FBECDBFDF91CF910895CF933B
:10047000DF9300D000D000D00F92CDB7DEB7298334
:100480003A834B835C836D837E838F83ED81FE8112
:10049000808190E02F8102C0959587952A95E2F79B
:1004A000817027960FB6F894DEBF0FBECDBFDF91E7
:0804B000CF910895F894FFCFED
:1004B8002400250023000224002500230003240033
:1004C8002500230004240025002300052700280018
:1004D8002600002700280026000127002800260003
:1004E80002270028002600032700280026000427EA
:1004F8000028002600052A002B002900052A002BC9
:100508000029000600FF0100010000FFFF000001B4
:100518000001FF00240025002300022400250023F9
:1005280000032400250023000424002500230005DF
:1005380027002800260000270028002600012700A1
:10054800280026000227002800260003270028008C
:10055800260004270028002600052A002B00290071
:08056800052A002B0029000602
:00000001FF
