:100000000C9434000C9451000C9451000C94510049
:100010000C9451000C9451000C9451000C9451001C
:100020000C9451000C9451000C9451000C9451000C
:100030000C9451000C9451000C94F3010C94510059
:100040000C9451000C9451000C9451000C945100EC
:100050000C9451000C9451000C9451000C945100DC
:100060000C9451000C94510011241FBECFEFD8E026
:10007000DEBFCDBF11E0A0E0B1E0E4ECF6E002C0ED
:1000800005900D92AC33B107D9F721E0ACE3B1E0B4
:1000900001C01D92A136B207E1F70E94F8000C944E
:1000A00060030C9400000F93CF93DF9300D000D037
:1000B00000D00F92CDB7DEB729833A834B835C83A0
:1000C0006D837E838F8387E0FE013196A9E4B1E0E2
:1000D00001900D928A95E1F701E02091490130915C
:1000E0004A0140914B0150914C0160914D0170913A
:1000F0004E0180914F010E94AB0227960FB6F894F3
:10010000DEBF0FBECDBFDF91CF910F91089545E0C7
:1001100050E060E070E085E491E00E9422028115E9
:1001200009F460C02091490130914A0140914B018E
:1001300050914C0160914D0170914E0180914F01A1
:100140000E94230321E0822790914401891329C052
:1001500080914301833050F58F5F8093430183305A
:1001600029F1809142018115E9F180913D018111D0
:1001700039C00E94160220913E0130913F0140910A
:10018000400150914101621B730B840B950B603D44
:1001900077408105910530F181E080933D0182E057
:1001A0001FC08093440120934301DBCF8091420123
:1001B0009817B9F290934201911569F00E941602C6
:1001C00060933E0170933F01809340019093410101
:1001D00010923D01C6CF80913D01811103C081E0A5
:1001E00080933C01089580913C0110923C01089558
:1001F0000E94EA010E9453022091070130910801F8
:100200004091090150910A0160910B0170910C011C
:1002100080910D010E94880220910001309101011E
:100220004091020150910301609104017091050118
:10023000809106010E94530020910701309108012E
:100240004091090150910A0160910B0170910C01DC
:1002500080910D010E948F0178940E9487000E9476
:10026000F3000E94B801F9CF209156013091570157
:10027000409158015091590160915A0170915B0170
:1002800080915C010C94DC0281110C94340120916A
:100290005601309157014091580150915901609198
:1002A0005A0170915B0180915C010C94FF02CF9325
:1002B000C82F809355018230E1F08330F1F0813016
:1002C000A9F081E0809350010E9434010E9416023F
:1002D00060935101709352018093530190935401A4
:1002E0006C2F80E090E00E944E030AC00E9434010F
:1002F000F7CF80E00E944401F3CF80E00E944401E8
:10030000EC2FF0E0EE0FFF1FED5CFE4F808191813E
:100310000E946B028EE091E0CF910C946B02CF9320
:10032000DF9300D000D000D00F92CDB7DEB7298385
:100330003A834B835C836D837E838F8387E0FE01EA
:100340003196A6E5B1E001900D928A95E1F780E043
:1003500090E00E944603833008F080E027960FB6B5
:10036000F894DEBF0FBECDBFDF91CF910C94570143
:1003700090915501823059F483E0933031F480E05C
:1003800090E00E944603833078F40C945701933038
:1003900041F0813059F4913029F0923029F09115D3
:1003A000A1F3089582E0F1CF80E0EFCF9111F9CF72
:1003B00048EE53E060E070E081E591E00E942202A7
:1003C000811579F38091500191E089278093500144
:1003D0000C94440182E084BD93E095BD99EF97BDF4
:1003E00080936E0008951F921FB61F9211248F9361
:1003F0009F93AF93BF9380915D0190915E01A09117
:100400005F01B09160010196A11DB11D80935D0156
:1004100090935E01A0935F01B0936001BF91AF9193
:100420009F918F911F901FBE1F9018952FB7F89422
:1004300060915D0170915E0180915F01909160011A
:100440002FBF0895CF92DF92EF92FF920F931F93E9
:10045000CF93DF93EC016A017B010E9416020881B1
:1004600019812A813B81AB01BC01401B510B620BFE
:10047000730B80E04C155D056E057F0558F0C801D3
:10048000D9018C0D9D1DAE1DBF1D88839983AA8344
:10049000BB8381E0DF91CF911F910F91FF90EF908F
:1004A000DF90CF9008951092C50087E68093C40036
:1004B000E0ECF0E080818D7F808388E18093C10053
:1004C00086E08093C20008959091C00095FFFCCF14
:1004D0008093C6000895CF93DF9300D00F92CDB7DD
:1004E000DEB789839A831B82E981FA818B81E80FC9
:1004F000F11D8081811106C00F900F900F90DF9148
:10050000CF9108950E9464028B818F5F8B83ECCF23
:10051000CF93DF9300D000D000D00F92CDB7DEB7DD
:1005200029833A834B835C836D837E838F83E98148
:10053000FA8180819F8121E001C0220F9A95EAF71C
:10054000822B808327960FB6F894DEBF0FBECDBFF7
:10055000DF91CF9108950F93CF93DF9300D000D018
:1005600000D00F92CDB7DEB729833A834B835C83EB
:100570006D837E838F83A981BA81EB81FC812C916D
:10058000382F81E001C0880F3A95EAF7382F30956F
:1005900023232C93011569F09081892B8083279662
:1005A0000FB6F894DEBF0FBECDBFDF91CF910F9194
:1005B000089580818323F2CFCF93DF9300D000D0C2
:1005C00000D00F92CDB7DEB729833A834B835C838B
:1005D0006D837E838F83EB81FC8180819F8121E00D
:1005E00001C0220F9A95EAF7822B808327960FB6D7
:1005F000F894DEBF0FBECDBFDF91CF910895CF93AA
:10060000DF9300D000D000D00F92CDB7DEB72983A2
:100610003A834B835C836D837E838F83EB81FC8184
:100620002081382F81E001C0880F3A95EAF7809544
:100630008223808327960FB6F894DEBF0FBECDBF0E
:10064000DF91CF910895CF93DF9300D000D000D0F9
:100650000F92CDB7DEB729833A834B835C836D83DA
:100660007E838F83ED81FE81808190E02F8102C0A7
:10067000959587952A95E2F7817027960FB6F8949D
:10068000DEBF0FBECDBFDF91CF910895F999FECFA8
:1006900092BD81BDF89A992780B50895262FF999C2
:1006A000FECF92BD81BDF89A019700B4021639F0D1
:1006B0001FBA20BD0FB6F894FA9AF99A0FBE0895A2
:0406C000F894FFCFDC
:1006C4002A002B00290002240025002300000D0A23
:1006D400004155544F004D414E55414C5F4F4E0023
:1006E4004D414E55414C5F4F4646004C4F434B4F96
:0C06F4005554001101160120012B0100DB
:00000001FF
