:100000000C94DE000C94FB000C94FB000C94FB00A1
:100010000C94FB000C94FB000C94FB000C94FB0074
:100020000C94FB000C94FB000C94FB000C94FB0064
:100030000C94FB000C94FB000C948D0B0C94FB00B7
:100040000C94FB000C94FB000C94FB000C94FB0044
:100050000C94FB000C94FB000C94FB000C94FB0034
:100060000C94FB000C94FB0000000000000000005A
:100070000000000000000000000000000000000080
:1000800000000000000000004F49494979007F400E
:10009000404040003E4141413E0001017F010100DE
:1000A0004F4949497900000000000000000B025A46
:1000B0000088015A000B025A009302A000DC005A8B
:1000C00000C4005A00960078006E00B40027050AAC
:1000D0000017040E00880178000B02780093027864
:1000E000001003C800000028009302780010037875
:1000F0000017042C0100002800100364001704649A
:100100000027056400200668010B023C0093023CB6
:100110000010033C0017043C0027053C0020067833
:10012000000B0246009302460010034600170482AB
:1001300000960019006E002D001704060070030CD5
:100140000000FF81BDBD81FF00183C7EFF7E3C1892
:10015000007E42060C1818181818187EFF7E3C66A0
:1001600042183C3C7E7EFF18183C4299BDBD994226
:100170003C00183C7E7E7E3C180204082876FDFE7A
:100180007C00000000000000004E780000000180AC
:10019000007E306D79335B5F707F7B00000009006B
:1001A0006500771F4E3D4F475E37303C370E761562
:1001B0007E6773055B0F3E3E3E373B6D11241FBECD
:1001C000CFEFD8E0DEBFCDBF11E0A0E0B1E0E4EFBB
:1001D000FCE102C005900D92A235B107D9F722E0EB
:1001E000A2E5B1E001C01D92A830B207E1F70E947C
:1001F000FD000C94780E0C940000CDB7DEB72C9760
:100200000FB6F894DEBF0FBECDBF20910401309130
:10021000050140910601509107016091080170911C
:10022000090180910A0190910B010E949B0D05E04C
:100230002091040130910501409106015091070180
:10024000609108017091090180910A0190910B0160
:100250000E943C0D0E94280A009113011091140184
:10026000209115013091160140911701509118010C
:10027000609119018EE591E00E94580900910C01EE
:1002800010910D0120910E0130910F01409110014C
:10029000509111016091120182E591E00E9458098C
:1002A0000E9446030E94840B7894E12CF12C670194
:1002B00026013601809104018E83909105019F8370
:1002C000E0910601E887F0910701F9878091090123
:1002D0008A8790910A019B87E0910B01EC870E942D
:1002E000B00B4B015C01481459046A047B0499F07B
:1002F0008EE591E00E948D09082F82E591E00E9431
:100300008D09282F402FB401C5010E94B103B4010B
:10031000C5010E94490AC401D5018C199D09AE0985
:10032000BF090F97A105B105A0F10E94810B3C0107
:10033000C12CD12CF30181913F0189837E01F2E030
:10034000EF0EF11C00E0802F0E94E40A0F5FFC0119
:10035000EC0DFD1D8081F70181937F01043099F739
:1003600001E00C0DCE0101967C012E813F81488574
:100370005985609108017A858B859C850E94890C3E
:100380009FEFC91AD90AE8E0CE16D10499F66401A4
:10039000750124013501A3CF1092870110928801C5
:1003A000609383017093840180938501909386010B
:1003B00060937F017093800180938101909382010B
:1003C00010927E019B01AC012056304F4F4F5F4F82
:1003D00020937A0130937B0140937C0150937D01FF
:1003E000DC01CB01805C904EAF4FBF4F8093760114
:1003F00090937701A0937801B09379011092D10185
:100400000895CF93DF9300D000D00F92CDB7DEB721
:1004100069837A838B839C831D8240E06D8183E0B6
:100420000E94C50A8D818F5F8D838830B1F78091DE
:10043000D1018230B9F469817A818B819C812CE36E
:1004400030E040E050E00E94350E622F67704CE3D0
:1004500083E00F900F900F900F900F90DF91CF914E
:100460000C94C50A8350823010F569817A818B81A2
:100470009C8124E630E040E050E00E94350E2A8363
:10048000198249818A81480F4695440B698183E02E
:100490000E94C50A89818F5F8983883091F70F9008
:1004A0000F900F900F900F90DF91CF91089548E13A
:1004B00063E083E00E94C50A48E164E0C9CFCF92BF
:1004C000DF92EF92FF920F931F93CF93DF930091F0
:1004D000890110918A0120918B0130918C016B016F
:1004E0007C01C01AD10AE20AF30A86019701E12CC5
:1004F00037FF0CC02CE330E040E050E00E94350EA6
:10050000EE24E39420FD02C0EE24EA94C3EAD1E095
:10051000F12CE881F0E0EE0FFF1FEF5BFE4FC08093
:10052000D18000E010E0602FF601E00FF11F449150
:1005300081E0E81218C046958F2D0E94C50A0F5F12
:100540001F4F0830110579F7F3942C9683E0C82EDD
:10055000FC10DFCFDF91CF911F910F91FF90EF90B3
:10056000DF90CF900895E11439F3440FE5CFCF9396
:100570000E94870AC0E0809175018C1710F0C4308A
:1005800011F4CF9108954CE363E08C2F0E94C50ACB
:100590004CE364E08C2F0E94C50ACF5FECCF88E269
:1005A00090E00E9447099C01E9E2F1E080E090813F
:1005B0002917310538F03196291B31098F5F8830B2
:1005C000B1F780E008958F929F92AF92BF92CF9241
:1005D000DF92EF92FF92E0919C01F0919D012091BA
:1005E0009E0130919F01E217F30708F04DC0C090C3
:1005F0009601D0909701E0909801F09099014B01FD
:100600005C018C189D08AE08BF0864017501F7FCF9
:1006100025C0AB01BC01485D5F4F6F4F7F4F4093DA
:1006200096015093970160939801709399014091BE
:100630009A0150919B01CF01A0E0B0E0840F951F7B
:10064000A11DB11D281739071A061B0608F4C90198
:1006500080939C0190939D010E94300B81E040911A
:100660009C0150919D0120919E0130919F01421764
:10067000530708F480E0FF90EF90DF90CF90BF9099
:10068000AF909F908F90089581E0F5CF84E680939E
:10069000CB011092CC011092C9011092CA011092A4
:1006A000C7011092C8011092A20110928901109204
:1006B0008A0110928B0110928C0180E480937C005F
:1006C00087E880937A0088E060E070E090917A009B
:1006D000906490937A0090917A0096FDFCCF660F1B
:1006E000771F20917800309179006227732781501D
:1006F00069F780917A008F7780937A006093A001E8
:100700007093A10180E090E00E94F9081092A3018B
:1007100097E09093AF0184E08093BB011092A40115
:100720001092A5011092A6019093B0011092B10110
:100730001092B2018093BC011092BD011092BE01D3
:100740008091CB019091CC010E942B0B80E090E036
:100750000E94300B0E94870A80E090E0BC010C945C
:10076000CC014F925F926F927F928F929F92AF9245
:10077000BF92CF92DF92EF92FF920F931F93CF938E
:10078000DF936B017C01C42FD22F8091D101833084
:1007900009F4A5C308F0AAC0813009F40AC2823066
:1007A00009F0BEC0C3EAD1E0A12CB12C10E00B814E
:1007B0000111E0C2E881F0E0EE0FFF1FEF5BFE4F9A
:1007C00060817181812F0E948F0A1F5F2C961330E8
:1007D00071F7A11449F00E94840A811105C061E0FB
:1007E00089E391E00E94350AB601C7010E94010227
:1007F000B110A6C0E091A3019091AF018091BB011F
:10080000E9132DC3E8132FC3AE2FB0E0AA0FBB1F0F
:10081000AF5CBE4FCD91DD91BB24B394E73009F0BE
:10082000B12C8091CB019091CC01AE0160E070E0E1
:10083000480F591F611D711D8C0F9D1F403157427C
:100840006105710510F08FE097E28093CB019093E2
:10085000CC01C093C901D093CA010E942B0B2097F1
:1008600009F428C3CE014D968E31910508F425C3B5
:100870006EE170E00E94210EC0939E01D0939F0113
:1008800010929C0110929D0160939A0170939B01BC
:10089000C0929601D0929701E0929801F09299014E
:1008A00080E090E00E94300BB11409F408C36DE0C1
:1008B00085ED90E00E94350AC601D70184529A4F17
:1008C000AF4FBF4F8093920190939301A0939401F7
:1008D000B0939501C0928E01D0928F01E092900169
:1008E000F092910110928D0184E028C0843009F4C7
:1008F0000AC3853009F460C3B601C701DF91CF9107
:100900001F910F91FF90EF90DF90CF90BF90AF902D
:100910009F908F907F906F905F904F900C94CC0140
:100920002230F9F461E08DE391E00E94350A1092E3
:100930007501109274010E94870A85E08093D101AD
:10094000DF91CF911F910F91FF90EF90DF90CF90AB
:10095000BF90AF909F908F907F906F905F904F90DF
:100960000895413011F0213079F461E08DE391E098
:100970000E94350AC092CD01D092CE01E092CF0103
:10098000F092D00181E0DACF8091CB019091CC013F
:100990000E942B0B80E090E00E94300B809176014A
:1009A00090917701A0917801B0917901860197012A
:1009B000081B190B2A0B3B0BC801D901B7FD17C047
:1009C0000E94840A811105C064E08DEA90E00E94D3
:1009D000350AC601D701805C904EAF4FBF4F809360
:1009E000760190937701A0937801B093790180917B
:1009F0007A0190917B01A0917C01B0917D019601DB
:100A0000A701281B390B4A0B5B0BC901DA01B7FDA3
:100A100014C080917E0191E0892780937E01C601F8
:100A2000D7018056904FAF4FBF4F80937A0190937C
:100A30007B01A0937C01B0937D0180917E018111A7
:100A40007DC08091830190918401A0918501B09136
:100A5000860186019701081B190B2A0B3B0BC80165
:100A6000D901B7FD6DCFC601D7018A5B9F4FAF4F4C
:100A7000BF4F8093830190938401A0938501B0932D
:100A800086018091870190918801019665E470E06C
:100A90000E94210E8C018093870110938801512CB4
:100AA000B1E08B2E912CC0E0D0E022C0C50165E4FE
:100AB00070E00E94210EFC01E859FF4FE491F0E044
:100AC000E621EF2B39F0882D022E01C0880F0A9401
:100AD000EAF7482B5FEFA51AB50A2150310930F724
:100AE000642D852D0E94C50A2196C830D10561F07C
:100AF0004C2E34010C2E01C0660C0A94EAF7580102
:100B000040E027E030E0D2CF5394085F1F4FA4E0CD
:100B10005A12C9CFB601C701DF91CF911F910F9132
:100B2000FF90EF90DF90CF90BF90AF909F908F900D
:100B30007F906F905F904F900C94010280917F01A5
:100B400090918001A0918101B0918201860197016D
:100B5000081B190B2A0B3B0BC801D901B7FDF0CEBE
:100B6000C601D70184529F4FAF4FBF4F80937F0183
:100B700090938001A0938101B0938201B601C701D7
:100B80002AEF30E040E050E00E94350ED22FC0E066
:100B9000EC2FED0FE770F0E0EE0FFF1FEF5BFE4F65
:100BA000608171818C2F0E948F0ACF5FC43081F7E2
:100BB000B1CF223009F4B6CE413009F0C3C08091E4
:100BC000CB019091CC01892B09F481C061E08DE3C8
:100BD00091E00E94350A8091A20181111FC02091ED
:100BE000A0013091A1016091840070918500409135
:100BF00084005091850080E090E0E3E0660F771F6D
:100C0000881F991FEA95D1F7932782272427352734
:100C1000732762270E94F908C093A2018091CB013B
:100C20009091CC0101978093CB019093CC012091BE
:100C3000C7013091C8012F5F3F4F2093C701309308
:100C4000C8011092C9011092CA010E942B0B80E0CA
:100C500090E00E94300BC3EAD1E0A12CB12C4501F9
:100C600011E0260137012CEB420E22E0521E611CDE
:100C7000711C0E94CF0288830E94CF0289831A824E
:100C80001B83CC82DD82EE82FF828EE591E00E94A2
:100C90004709A201B301480D591D6A1D7B1D480F6C
:100CA000591F611D711D488759876A877B872C965C
:100CB00032EC830E31E0931EA11CB11C46E4841675
:100CC00045E09406A104B104A1F682E037CE64E0C9
:100CD0008DEB90E00E94350AC601D7018E539E4FDE
:100CE000AF4FBF4F8093890190938A01A0938B01EE
:100CF000B0938C01C092CD01D092CE01E092CF0191
:100D0000F092D001D13069F461E08DE391E00E946E
:100D1000350AC092CD01D092CE01E092CF01F0927F
:100D2000D0018091CB019091CC010E942B0B80913E
:100D3000C9019091CA010E94300BB601C7010E94FF
:100D40005F02E8CE213001F38091CD019091CE0178
:100D5000A091CF01B091D0018B019701081B190B15
:100D60002A0B3B0BC801D901805E9E42A109B10943
:100D7000C2F2C2CD8C819D81AE81BF819601A70157
:100D8000281B390B4A0B5B0BC901DA01B7FD44C0C4
:100D90008A818F5F883008F055C08A83888599855D
:100DA000AA85BB8546015701881A990AAA0ABB0A77
:100DB0000AF04FC08C199D09AE09BF098C3B9240C7
:100DC000A105B10508F048C0A5E5B0E09401A50172
:100DD00024543D4F4F4F5F4F0E94570E2CEB32E093
:100DE00040E050E00E94350E275E3F4FC601D7011C
:100DF000820F931FA11DB11D8C839D83AE83BF8382
:100E0000B7FC09C08A81811106C01B8262E081E3C0
:100E100091E00E94350AA02EE981F0E0EE0FFF1F5D
:100E2000EF5BFE4F40815181E881F0E0EE0FFF1F44
:100E3000EF5BFE4F608171812A81812F0E94A30A9E
:100E4000B02EC3CC1A82898188830E94CF02898305
:100E5000A5CF2EE630E0CACF29E130E0C7CF981702
:100E6000E1F0E8131CC0F0E0EE0FFF1FEF5CFE4F57
:100E700080819181A0E0B0E0AC01BD01E3E0769516
:100E8000679557954795EA95D1F74097A105B10524
:100E900010F442E050E0EA01C4CCE92FE4CFE115C0
:100EA00031F0911521F0C0E0D0E08111BACCC5E05D
:100EB000D0E0B7CC60E070E0DFCC61E0FCCF209701
:100EC00009F458CD66E089E091E0C837D10518F4FF
:100ED00064E081E291E00E94350A83E02FCDC701F2
:100EE0000E94E302C82FB601C7010E945F02B6014B
:100EF000C7010E940102C11509F422CD0E94840A93
:100F000081111ECD37CDC7010E94E30280918E0171
:100F100090918F01A0919001B0919101860197016C
:100F2000081B190B2A0B3B0BC801D901B7FD14C0D4
:100F3000C601D70188589F4FAF4FBF4F80938E0196
:100F400090938F01A0939001B093910180918D01B6
:100F500091E0892780938D01B601C7010E945F024D
:100F6000B601C7010E94010280918D0181110E948A
:100F7000D40A8091920190919301A0919401B09133
:100F800095019601A701281B390B4A0B5B0BC90180
:100F9000DA01B7FDD5CC0E94840A8111D1CC209111
:100FA0009C0130919D0180919E0190919F01281795
:100FB000390708F0DFCCC4CC80917401811509F4A5
:100FC00099C08091CB019091CC01009759F4109277
:100FD000740166E089E091E00E94350A82E0809326
:100FE0007501AECC40916A0150916B0160916C012A
:100FF00070916D0186019701041B150B260B370BB1
:10100000A801B90177FD5BC020916E0130916F019D
:101010008217930708F49C01821B930B8093CB01EA
:101020009093CC014091700150917101240F351FB4
:1010300020937001309371010E942B0B80917001FD
:10104000909171010E94300B62E08DEC90E00E9463
:10105000350A80917201909173014C01A12CB12C41
:101060002091700130917101A501220F331F441F9F
:10107000551F821793071406150698F52819390984
:101080004A095B09AFE5B0E00E94570E9401A50143
:10109000211531054105510511F421E030E00E9490
:1010A000350E275E3F4FC20ED31EE11CF11CC092CD
:1010B0006A01D0926B01E0926C01F0926D01DF91B8
:1010C000CF911F910F91FF90EF90DF90CF90BF9045
:1010D000AF909F908F907F906F905F904F900C9407
:1010E000B702C401D501821B930BA40BB50B9C0165
:1010F000AD01C8CF213079F48091750190E001965F
:1011000063E070E00E94210E8093750161E08DE341
:1011100091E00E94350AC130B1F461E08DE391E0C5
:101120000E94350A80917501813068F009F041C054
:101130008091CB019091CC010097B1F464E08DEBEC
:1011400090E00E94350A809175018130E8F109F440
:1011500046C064E271E080E00E94350B63E271E01A
:1011600081E00E94350BABCF8093720190937301A5
:10117000109270011092710126E0969587952A953C
:10118000E1F7009711F481E090E080936E01909375
:101190006F01C0926A01D0926B01E0926C01F092F3
:1011A0006D0181E08093740180E090E00E94300B3B
:1011B000CACFC092CD01D092CE01E092CF01F09281
:1011C000D001C093D101BCCB6AE171E00E94350B24
:1011D0008091C7019091C8010E94300B70CF6FE1E0
:1011E00071E080E00E94350B8091CB019091CC01A1
:1011F000F3CFAB01BC01411551056105710521F427
:1012000041E954EF65E475E2409300015093010118
:10121000609302017093030108950F931F9340910F
:10122000000150910101609102017091030180E081
:10123000942FA52FB62F25E0880F991FAA1FBB1F3B
:101240002A95D1F784279527A627B727AD0156956C
:10125000479584279527AC01BD01E5E0440F551F54
:10126000661F771FEA95D1F78A019B010827192786
:101270002A273B27B801C90160930001709301013F
:1012800080930201909303011F910F910895CF93D2
:10129000DF93EC01892B41F00E940D099E0140E093
:1012A00050E00E94350EEB01CE01DF91CF91089501
:1012B0000F931F93CF93DF9300D000D000D00F92F5
:1012C000CDB7DEB709831A832B833C834D835E83BE
:1012D0006F8327E0FE013196DC0101900D922A9583
:1012E000E1F721E0FC012783108611861286138620
:1012F00001E029813A814B815C816D817E818F8102
:101300000E94DF0B27960FB6F894DEBF0FBECDBF4D
:10131000DF91CF911F910F910895CF93DF93EC014F
:10132000288139814A815B816C817D818E810E9417
:10133000570C9F81981314C0188691111DC08B857E
:1013400081111AC089859A85019689879A87883E76
:10135000934090F081E08B8782E0DF91CF910895F8
:1013600098859F5F98879F3038F08F83188681110A
:1013700005C019861A861B8680E0EFCF8B8591E029
:101380008927EBCF10928000109281002998089550
:10139000CF93DF9300D000D000D0CDB7DEB7698304
:1013A0007A838B839C832091D80184E0289F9001CD
:1013B00011248091DA019091DB01820F931FFC01CF
:1013C00025913591FC013296859195918D839E836F
:1013D00021153105E9F40E94C20989819A81AB8106
:1013E000BC812D813E81820F931FA11DB11D809371
:1013F000D4019093D501A093D601B093D7010F905B
:101400000F900F900F900F900F90DF91CF91089554
:1014100040E050E084E0220F331F441F551F8A959F
:10142000D1F760E074E284EF90E00E94350E215025
:10143000310980E4809380008AE0809381003093BA
:101440008900209388001092850010928400C5CFF7
:10145000219A0C94C2091092D3011092DA011092D1
:10146000DB011092D9010C94C209009711F06111AF
:1014700002C00C942B0A8093DA019093DB016093F5
:10148000D9011092D80181E08093D3018093D201D9
:101490000895EF92FF920F931F932091D30121158E
:1014A00071F12091D201211541F01092D2011F91CA
:1014B0000F91FF90EF900C94C8092091D4013091C6
:1014C000D5014091D6015091D7017B018C01E21AE0
:1014D000F30A040B150B9701A80157FD10C02091CA
:1014E000D80131E0320F3093D8012091D901321761
:1014F000F0F21F910F91FF90EF900C942B0A1F9127
:101500000F91FF90EF9008958091D3010895ECED35
:10151000F1E080E2DF011D928A95E9F708958430B9
:1015200088F498E0899FD0011124A452BE4F80E036
:1015300090E0FB01E80FF91FE491ED9301968830EC
:101540009105B9F708958430F8F4293008F028E0BF
:1015500098E0899FD0011124A452BE4F80E090E012
:1015600048505109420F511D620F711D322F380F23
:10157000FB01383008F0FA01E80FF91FE491ED9310
:1015800001968830910591F70895843060F46830B1
:1015900050F428E0829FC001112484529E4FFC0128
:1015A000E60FF11D408308958CED91E0FC0128E0E9
:1015B0003191DF0130953E932150D1F7089621E01B
:1015C0008C3F920799F70895843008F080E028E076
:1015D000829FC001112484529E4F0895DF92EF92A2
:1015E000FF920F931F93CF93DF93EB01603177420C
:1015F00010F0CFE0D7E28C01D12C31E088EEE82E5C
:1016000083E0F82ECE01B7010E94210E462F262F2F
:10161000EC01C7016AE070E00E94210E7B014111DC
:1016200005C0311519F083E0D81206C080E3840F9D
:101630000E940E0E282F30E0F80121938F01D394E1
:10164000F4E0DF12DFCFDF91CF911F910F91FF9078
:10165000EF90DF900895BC018CEF91E00C94EE0ABE
:10166000BC0180E092E00C94EE0AEF92FF920F939F
:101670001F93CF93DF9300D00F92CDB7DEB701E079
:10168000813009F000E0000F000F7B0110E0C8017D
:1016900084509E4F89839A831B82F7018081811138
:1016A00016C044E0FB814F1B50E0C8018F0F911D15
:1016B00060E070E084509E4F0F900F900F90DF918C
:1016C000CF911F910F91FF90EF900C94710E9FEFAF
:1016D000E91AF90AEB81EF5FEB830E940E0EE981B4
:1016E000FA818193E983FA83FB81F430B1F60F909C
:1016F0000F900F90DF91CF911F910F91FF90EF907E
:1017000008958CEF91E0089582E084BD93E095BD4B
:1017100099EF97BD80936E0008951F921FB61F9298
:1017200011248F939F93AF93BF9380910402909164
:101730000502A0910602B09107020196A11DB11DFC
:101740008093040290930502A0930602B0930702CF
:10175000BF91AF919F918F911F901FBE1F901895C1
:101760002FB7F894609104027091050280910602EF
:10177000909107022FBF0895CF93DF9300D000D040
:1017800000D00F92CDB7DEB729833A834B835C83B9
:101790006D837E838F83E981FA8180819F8121E03F
:1017A00001C0220F9A95EAF7822B808327960FB605
:1017B000F894DEBF0FBECDBFDF91CF9108950F9398
:1017C000CF93DF9300D000D000D00F92CDB7DEB71B
:1017D00029833A834B835C836D837E838F83A981C6
:1017E000BA81EB81FC812C91382F81E001C0880FF8
:1017F0003A95EAF7382F309523232C93011569F099
:101800009081892B808327960FB6F894DEBF0FBE98
:10181000CDBFDF91CF910F91089580818323F2CFC7
:10182000CF93DF9300D000D000D00F92CDB7DEB7BA
:1018300029833A834B835C836D837E838F83EB8123
:10184000FC8180819F8121E001C0220F9A95EAF7F7
:10185000822B808327960FB6F894DEBF0FBECDBFD4
:10186000DF91CF910895CF93DF9300D000D000D0C7
:101870000F92CDB7DEB729833A834B835C836D83A8
:101880007E838F83EB81FC812081382F81E001C032
:10189000880F3A95EAF780958223808327960FB6C2
:1018A000F894DEBF0FBECDBFDF91CF910895CF93E7
:1018B000DF9300D000D000D00F92CDB7DEB72983E0
:1018C0003A834B835C836D837E838F83ED81FE81BE
:1018D000808190E02F8102C0959587952A95E2F747
:1018E000817027960FB6F894DEBF0FBECDBFDF9193
:1018F000CF91089584B18C6284B981E58CBD8DB59A
:101900008E7F8DBD08958EBD0DB407FEFDCF8EB5C3
:101910000895EF92FF920F931F93CF93DF93CDB76C
:10192000DEB763970FB6F894DEBF0FBECDBF298731
:101930003A874B875C876D877E878F87988B098B6B
:10194000EA8AFB8AF92E88E0FE0139968E010F5F44
:101950001F4FD80101900D928A95E1F729813A81B4
:101960004B815C816D817E818F810E94330CE02EE2
:10197000F1101EC088E0FE013996AE2DB12F019006
:101980000D928A95E1F729813A814B815C816D81C5
:101990007E818F8163960FB6F894DEBF0FBECDBFF8
:1019A000DF91CF911F910F91FF90EF900C94100C4D
:1019B000FA9489890E94830CEA89FB89EF0DF11D55
:1019C00080810E94830CD4CFEF92FF920F931F93DC
:1019D000CF93DF93CDB7DEB763970FB6F894DEBF32
:1019E0000FBECDBF29873A874B875C876D877E877F
:1019F0008F879A8B988BEB8A88E0FE0139967E015F
:101A00009FEFE91AF90AD70101900D928A95E1F743
:101A100029813A814B815C816D817E818F810E9419
:101A2000330C10E0E98A8A8918131EC088E0FE0191
:101A30003996A989BF2D01900D928A95E1F72981E8
:101A40003A814B815C816D817E818F8163960FB677
:101A5000F894DEBF0FBECDBFDF91CF911F910F91E4
:101A6000FF90EF900C94100C802F0E94830C8B89B8
:101A70000E94830C1F5FD7CFEF920F93CF93DF931A
:101A8000CDB7DEB728970FB6F894DEBF0FBECDBF37
:101A900029833A834B835C836D837E838F8398870E
:101AA000003108F00FE0E02E0AE029813A814B81F5
:101AB0005C816D817E818F8198850E94E40C2896DF
:101AC0000FB6F894DEBF0FBECDBFDF91CF910F915F
:101AD000EF900895EF920F931F93CF93DF93CDB7BD
:101AE000DEB728970FB6F894DEBF0FBECDBF2983AF
:101AF0003A834B835C836D837E838F83988710E06A
:101B00001F5FE12C012F29813A814B815C816D811E
:101B10007E818F8198850E94E40C183089F7289681
:101B20000FB6F894DEBF0FBECDBFDF91CF911F91EE
:101B30000F91EF900895EF920F93CF93DF93CDB76E
:101B4000DEB729970FB6F894DEBF0FBECDBF298749
:101B500029833A834B835C836D837E838F8398874D
:101B60000E94BC0B29813A814B815C816D817E8111
:101B70008F810E94100C0E947A0CE12C0FE02981C9
:101B80003A814B815C816D817E818F8198850E9435
:101B9000E40C09E029813A814B815C816D817E8171
:101BA0008F8198850E94E40C87E0E82E0BE0298164
:101BB0003A814B815C816D817E818F8198850E9405
:101BC000E40C0AE029813A814B815C816D817E8140
:101BD0008F8198850E94E40C29813A814B815C8138
:101BE0006D817E818F8198850E946A0DEE24E39439
:101BF0000CE029813A814B815C816D817E818F81EE
:101C000098850E94E40C29960FB6F894DEBF0FBEAB
:101C1000CDBFDF91CF910F91EF900895E82F80EE27
:101C20008E0F9FE99E0F9A3140F08B3340F4E052C3
:101C3000FF0BEF57FE4F84910895E82FF8CF80E017
:101C40000895AA1BBB1B51E107C0AA1FBB1FA61703
:101C5000B70710F0A61BB70B881F991F5A95A9F755
:101C600080959095BC01CD010895A1E21A2EAA1B82
:101C7000BB1BFD010DC0AA1FBB1FEE1FFF1FA2173C
:101C8000B307E407F50720F0A21BB30BE40BF50B39
:101C9000661F771F881F991F1A9469F760957095C2
:101CA000809590959B01AC01BD01CF0108950E94E4
:101CB000620EA59F900DB49F900DA49F800D911D65
:101CC00011240895A29FB001B39FC001A39F700D7E
:101CD000811D1124911DB29F700D811D1124911D34
:101CE0000895DC0101C06D9341505040E0F7089524
:041CF000F894FFCF96
:101CF40091F4452524002500230002052A002B0029
:101D04002900072A002B00290006504C41590043A2
:101D14004153480045584954000608070505040383
:101D24000228003200460064009600F00090010989
:101D340003790171016901610141015901490151AD
:021D440001009C
:00000001FF
