:100000000C9444000C9461000C9461000C94610009
:100010000C9453060C9461000C9461000C946100E4
:100020000C9461000C9461000C9461000C946100CC
:100030000C9461000C9461000C948B060C9461008C
:100040000C9461000C9461000C9461000C946100AC
:100050000C9461000C9461000C9461000C9461009C
:100060000C9461000C946100C8009001D00732002C
:1000700020033200E8034600DC054600D0074600B6
:10008000DC051E00D007140011241FBECFEFD8E0FE
:10009000DEBFCDBF11E0A0E0B1E0E6EFF3E102C0CA
:1000A00005900D92A638B107D9F721E0A6E8B1E096
:1000B00001C01D92AB3FB207E1F70E942C060C94E1
:1000C000F9090C940000E0918F01E03440F491E0D4
:1000D0009E0F90938F01F0E0E057FE4F80830895CC
:1000E0000F93082F80938E010E94AE0660938A01C1
:1000F00070938B0180938C0190938D01023021F1DC
:1001000028F4011109C00F910C947007033009F114
:10011000043079F10F9108951092DD011092DE0103
:100120001092DF011092E0011092DC0180ED91E06D
:100130000E94D00410928F0141E451E060E080E918
:1001400091E00F910C947F0740ED51E060918F0199
:10015000F6CF2091DD013091DE014091DF01509119
:10016000E00101E060918F0180E991E00E94B30716
:10017000D1CF2091DD013091DE014091DF0150911E
:10018000E00100E0EFCFCF93DF930F92CDB7DEB762
:10019000898385E00E947000898162E071E081308E
:1001A00061F483E191E00E940A0861E088E690E052
:1001B0000F90DF91CF910C9433038CE191E0F3CF5A
:1001C000CF93C82F80ED8C0F8A30A8F480ED91E09A
:1001D0000E94D0046C2F80ED91E00E94D3048C2FFC
:1001E0000E94630082E00E94700061E084E890E079
:1001F000CF910C94330362E08CE690E0CA32C1F3F5
:1002000061E088E690E0F4CFEF92FF920F931F93A6
:10021000CF93DF9300D000D00F92CDB7DEB78983A4
:100220006C837D834A835B8380ED91E00E94E504CB
:100230008B019C018091DC0181111BC00093DD01C9
:100240001093DE012093DF013093E00181E0EC8127
:10025000FD818083F981F093DC010F900F900F9066
:100260000F900F90DF91CF911F910F91FF90EF9022
:1002700008954091DD015091DE016091DF017091A0
:10028000E0019DEDE92E91E0F92E0E94650391E0D9
:10029000811190E0EC81FD819083EA81FB81D9CFCF
:1002A0000C9470000F931F93CF93DF9300D0CDB7C2
:1002B000DEB70E942306192F8130E9F40E94AE06B2
:1002C00060938601709387018093880190938901E0
:1002D00080918E01982F9B7F39F481E00E947000FD
:1002E000812F0E94E00007C0823039F1833009F489
:1002F000A7C08130A9F380918E01853009F0CFC06D
:100300000E94AE0600918A0110918B0120918C0110
:1003100030918D01601B710B820B930B6C3D75400E
:100320008105910508F4BBC081E00F900F90DF912B
:10033000CF911F910F910C94700080ED810F8A3046
:1003400078F58091DB01813091F48091D001803388
:1003500071F41033C1F0E0918F011093D001F0E0FF
:10036000E157FE4F108361E084E890E00AC0612FFE
:1003700080ED91E00E94D30481110EC061E088E617
:1003800090E00E94330340ED51E060918F0180E9DD
:1003900091E00E947F07AFCF812F0E946300E3CFDF
:1003A0000FEB010F0430E8F0133209F03FC01A825E
:1003B0001982AE014F5F5F4FBE016E5F7F4F80E0DD
:1003C0000E9404018A818115D9F08DE30E946300A7
:1003D00084E00E94700063E084E790E00E943303B1
:1003E0008ACF1A821982AE014F5F5F4FBE016E5FE6
:1003F0007F4F80EC810F0E9404018A81811104C02B
:1004000089810E94C30077CFE02FF0E0E35CFE4FCC
:1004100080810E94630080ED91E00E94D00483E01F
:100420000E94700061E080E890E0D8CF1A3209F0B5
:1004300062CF81E00E94700062E08CE690E0CECF57
:1004400080ED810F8A3098F480ED91E00E94D00415
:10045000612F80ED91E00E94D304812F0E94630000
:1004600082E00E94700061E084E890E0B7CFEFEB9B
:10047000E10FE43070F410541093DC01A0918F016F
:10048000B0E0A157BE4FF0E0E35CFE4F80818C935B
:10049000C6CF133259F661E088E690E09FCF0F9007
:1004A0000F90DF91CF911F910F91089580918E0150
:1004B000853041F040E355E760E070E086E891E088
:1004C0000C94BA0680E008950F9380918E018230DB
:1004D00071F038F441E451E081110BC00F910C949C
:1004E0007007833069F08430D9F00F91089540EDA2
:1004F00051E060918F0180E991E00F910C947F07AA
:100500002091DD013091DE014091DF015091E00149
:1005100001E060918F0180E991E00E94B307E5CF8F
:100520002091DD013091DE014091DF015091E00129
:1005300000E0EFCF239A08951092B1001092B0001E
:1005400023981092E5011092E2010895EF92FF9234
:100550000F931F93CF93DF9300D000D0CDB7DEB7BA
:100560007C0169837A83892B61F40F900F900F903F
:100570000F90DF91CF911F910F91FF90EF900C940E
:100580009C02239A0DE411E01B821C82F801208159
:100590003181D7010E942D099B01AC01220F331F2D
:1005A000441F551F60E074E284EF90E00E944C0904
:1005B000C901DA010197A109B1099A2B9B2B99F581
:1005C0002150EB81FC81EE0FFF1F8B819C81E80F96
:1005D000F91FE35BFE4F82811092B10092E4909389
:1005E000B0002093B3008093B1000E94AE06298131
:1005F0003A81620F731F811D911D6093E601709314
:10060000E7018093E8019093E90181E08093E5019F
:100610000F900F900F900F90DF91CF911F910F913E
:10062000FF90EF900895EB81FC813196EB83FC8382
:100630000D5F1F4F369709F0A9CF87E020E0CCCFA0
:1006400024E0829FC00111242091E3013091E40154
:10065000280F391FF90185919591F901329665911D
:1006600075910C94A602009711F0611102C00C94D0
:100670009C028093E3019093E4016093E201109265
:10068000E10180E00C9420038091E5018115E1F007
:100690000E94AE062091E6013091E7014091E80109
:1006A0005091E901621773078407950768F08091FC
:1006B000E1018F5F9091E201891720F48093E101BD
:1006C0000C9420030C949C0208954F925F926F92B9
:1006D0007F928F929F92AF92BF92EF92FF920F9371
:1006E0001F93CF93DF932A013B0148015901E70192
:1006F000833009F481C050F4813041F1823009F433
:100700005EC088829982AA82BB823BC08430C9F7CE
:1007100082E081149104A104B104A1F141145104B7
:10072000610480E8780639F48FEF88169804A804ED
:10073000B80409F47CC0B201C3019401A5010E9470
:100740006E09288339834A835B831BC0811491041B
:10075000A104B10431F12CF14FEF5FEF6FEF7FE7B0
:10076000481959096A097B09441555056605770535
:100770004CF0480C591C6A1C7B1C488259826A82C6
:100780007B8280E0DF91CF911F910F91FF90EF90DE
:10079000BF90AF909F908F907F906F905F904F90A1
:1007A000089539F340E050E060E070E848195909D5
:1007B0006A097B094416550666067706D9CF811467
:1007C0009104A104B1047CF4C801D9010197A109E5
:1007D000B04884159505A605B7054CF14818590889
:1007E0006A087B08CACFD1F3C801D901B0584816AE
:1007F00059066A067B06F1CF411451046104710465
:1008000029F081149104A104B10429F418821982F9
:100810001A821B82B6CF41145104610480E8780625
:1008200041F48FEF88169804A804B804D1F581E04C
:10083000A9CF81149104A10480E8B80631F48FEFA8
:10084000481654046404740491F37201830177FE22
:1008500007C0EE24FF248701E418F50806091709EC
:100860009401A501B7FE07C050954095309521959C
:100870003F4F4F4F5F4F6FEF7FEF8FEF9FE70E942C
:100880004C092E153F054007510788F29401A50138
:10089000B201C3010E943C09688379838A839B83E8
:1008A00070CF81149104A10480E8B80691F620E08D
:1008B00030E040E050E88A017901D6CF7F928F92F4
:1008C0009F92AF92BF92CF92DF92EF92FF920F93DF
:1008D0001F93CF93DF93CDB7DEB72A970FB6F89467
:1008E000DEBF0FBECDBF6B017C015A01CB01D7012A
:1008F000F7FE07C088279927DC018C199D09AE09EE
:10090000BF09782E892E9A2E0B2F10E0672D782D97
:10091000892D902F2AE030E040E050E00E944C0901
:10092000FE013196E10FF11D1F5F605D6083872D31
:10093000982DA92DB02F722E832E942E052F0A9755
:10094000A105B10518F780E0F7FE04C08DE2F501BE
:10095000808381E0912F810FE82FE91BEA0DFB2DA9
:10096000F11D911115C010822A960FB6F894DEBFC2
:100970000FBECDBFDF91CF911F910F91FF90EF90F0
:10098000DF90CF90BF90AF909F908F907F90089511
:100990009150DE011196A90FB11D2C912083DCCF5F
:1009A000FC0113860895DC011B96EC911B97EA303D
:1009B00050F421E02E0F1B962C93E80FF92FF11D18
:1009C000608381E0089580E008958F929F92AF92B6
:1009D000BF92CF92DF92EF92FF920F931F93CF932C
:1009E000DF93FC019384882EEC0120E030E0A90124
:1009F000B901C901EC2FE819E915F8F0B22FA32FBE
:100A0000F42FE52F5038610571058105910520F01F
:100A1000AFEFBFEFEFE7FFEF6B2F7A2F8F2F9E2FF8
:100A2000DF91CF911F910F91FF90EF90DF90CF90CA
:100A3000BF90AF909F908F900895EAE0AE2EB12CBA
:100A4000C12CD12C760186010E94980959016A01B6
:100A50007B018C0149914053550B952F990F990BB0
:100A60009A01492F592F692F792F892F0E94F00958
:100A7000C1CFEFE6F1E041E050E0A281B3812C91DB
:100A80008481BA0101C0660F8A95EAF7862F8095A6
:100A900082238C93359671E0E338F70771F7089558
:100AA000EFE6F1E041E050E0A281B3818C91248136
:100AB000BA0101C0660F2A95EAF7862B8C9335960A
:100AC00071E0E338F70781F7089587B1807F87B930
:100AD00088B18F6088B9EFE6F1E041E050E0A08195
:100AE000B1818C912481BA0101C0660F2A95EAF781
:100AF000862B8C93359671E0E338F70781F70C94D9
:100B00005005CF93DF9345E050E060E070E082EF66
:100B100091E00E94BA06811509F492C0EFE6F1E077
:100B200080E041E050E0A281B3816C912481EA0130
:100B300001C0CC0F2A95EAF72C2F9C2F9095962375
:100B40009C93D5E3DA95F1F7000096B19F703C9144
:100B5000232B2C939F3009F444C02FE092272FEFD2
:100B6000290F292309F042C090FF33C0880F880F56
:100B7000820F9091010198133BC09091F101933045
:100B8000E8F59F5F9093F1019330C1F180910001EE
:100B90008F3F09F455C08091EC01811151C00E9432
:100BA000AE062091ED013091EE014091EF015091A0
:100BB000F001621B730B840B950B683E734081053B
:100BC0009105F0F181E08093EC01E091000182E079
:100BD0002FC021E091FDCACF23E092FFC7CF22E0D2
:100BE000C5CF8F5F3596843009F09DCF8FEFC1CF91
:100BF0008093010181E08093F101C8CFE091000171
:100C0000E81721F2809300018F3F69F00E94AE0641
:100C10006093ED017093EE018093EF019093F001EA
:100C20001092EC01B3CF8091EC01811109C081E0F9
:100C30008093EA01F0E0E15AFE4F80818093EB015E
:100C4000DF91CF9108958091EA019091EB0110928C
:100C5000EA011092EB0108950E9482060E949B080F
:100C60000E9465050E949A020E944906789480E0DD
:100C70000E9450010E9481050E9444030E9452017B
:100C80000E9456028115B1F30E9459060E94640227
:100C9000F1CFECE6F0E080818F608083E8E6808130
:100CA0008260808308958F9381E08093F6018F9115
:100CB00018950E9423080E949C020E943905E4E6D0
:100CC000F0E0808180628083808180648083808185
:100CD0008160808383B7817F846083BFF89483B70A
:100CE000816083BF7894889583B78E7F83BF80812E
:100CF0008F7D808380818F7B808380818E7F8083C6
:100D00000C94500582E084BD93E095BD99EF97BDAA
:100D100080936E0008951F921FB61F9211248F9327
:100D20009F93AF93BF938091F7019091F801A091A9
:100D3000F901B091FA010196A11DB11D8093F7014F
:100D40009093F801A093F901B093FA01BF91AF918C
:100D50009F918F911F901FBE1F9018952FB7F894E9
:100D60006091F7017091F8018091F9019091FA0179
:100D70002FBF0895CF92DF92EF92FF920F931F93B0
:100D8000CF93DF93EC016A017B010E94AE060881DC
:100D900019812A813B81AB01BC01401B510B620BC5
:100DA000730B80E04C155D056E057F0558F0C8019A
:100DB000D9018C0D9D1DAE1DBF1D88839983AA830B
:100DC000BB8381E0DF91CF911F910F91FF90EF9056
:100DD000DF90CF9008950F931F93CF93DF9300D0B0
:100DE00000D0CDB7DEB78B8369837A834C8360E014
:100DF0000E94EC0809811A818C819B81890F89836B
:100E00008B8199818917D1F0803149F40F900F902F
:100E10000F900F90DF91CF911F910F910895F801DE
:100E200081918F010E942B09FB81FF5FFB83E8CF3B
:100E300080E20E942B09EB81EF5FEB83FB81F031B5
:100E4000B9F7E4CF0F931F93CF938C01C62F462F92
:100E5000BC0180E0C13178F060E080E00E94EC08E5
:100E60008CE30E942B098C2F8F50990BB801680FCF
:100E7000791F4FE081E0CF911F910F910C94EB0609
:100E80000F931F93CF93DF9300D0CDB7DEB7698365
:100E90007A83682F80E00E94EC0809811A81198208
:100EA000F80180818115C1F0F981F03139F40F909A
:100EB0000F90DF91CF911F910F9108950F5F1F4FFA
:100EC0000E942B0989818F5F8983EACF80E20E948B
:100ED0002B0989818F5F898399819031B9F7E7CF99
:100EE00068E271E080E00E94400762E371E081E027
:100EF0000E94400740E060E081E00C94FB080F9303
:100F00001F93CF93DF938A010E942207F801838504
:100F1000CFE0C81B61E080E00E94EC08D0E0DC1369
:100F200015C0C0E0F8018385C817A8F080E20E94D0
:100F30002B0961E08FE00E94EC0841E061E081E074
:100F4000DF91CF911F910F910C94FB0880E20E94DA
:100F50002B09DF5FE4CFF801EC0FF11D80810E94C7
:100F60002B09CF5FDFCFDF92EF92FF920F931F939A
:100F7000CF93DF93CDB7DEB761970FB6F894DEBF9E
:100F80000FBECDBF2D873E874F87588B098B0E94A0
:100F900022077E018FEFE81AF80AA7016D857E858A
:100FA0008F8598890E945E04D82E00E1081B61E0BD
:100FB00080E00E94EC0810E0101321C08701802F10
:100FC0008E198D1508F1F98940E060E0F11531F0D6
:100FD00061E08FE00E94EC0840E061E081E00E9467
:100FE000FB0861960FB6F894DEBF0FBECDBFDF9150
:100FF000CF911F910F91FF90EF90DF90089580E2C5
:101000000E942B091F5FD8CFF80181918F010E94A8
:101010002B09D5CFCF93DF9300D0CDB7DEB769834F
:101020007A83BC0180E00E94400769817A8181E077
:101030000E94400740E060E081E00F900F90DF9158
:10104000CF910C94FB080E948F0840E060E080E0A4
:101050000C94FB082A9A85E08A95F1F700002A98FB
:1010600085E08A95F1F700000895289829989BB1AA
:101070009F708295807F892B8BB90C942A088AB146
:101080008F708AB98BB18F708BB92898299A80E2BA
:101090009EE42A9A25E02A95F1F7000029B12A98C2
:1010A00035E03A95F1F700002A9A35E03A95F1F7E4
:1010B000000039B12A9835E03A95F1F7000027FF92
:1010C00008C0019731F782E09AB1906F9AB92998D8
:1010D000089580E0F9CFCF93DF9300D0CDB7DEB78E
:1010E0008A830E943F088983811113C02898299818
:1010F0008BB18F709A81907F892B8BB90E942A08BF
:101100008BB18F709A819295907F982B9BB90E949A
:101110002A0889810F900F90DF91CF91089581E087
:101120000E946B08811106C0EFE3FFE13197F1F7F0
:1011300000C000000895209A219A229A8AB1806FF7
:101140008AB9289829982A988BB18F708BB92FEF7C
:1011500080E792E0215080409040E1F700C000001D
:1011600083E00E9435088FE19EE40197F1F700C00B
:10117000000083E00E9435088FE193E00197F1F7CA
:1011800000C0000083E00E9435088FE193E00197E2
:10119000F1F700C0000082E00E9435088FE193E083
:1011A0000197F1F700C0000088E20E946B088111EE
:1011B00011C088E00E946B0881110CC00E948F084A
:1011C000811108C086E00E946B08811103C08CE089
:1011D0000C946B0882E00895803158F4623048F432
:1011E000E62FF0E0ED57FE4F9081890F80680C9458
:1011F0006B0881E00895811107C088E06111826069
:10120000411181600C946B088CE0F8CFCF93DF9391
:1012100000D0CDB7DEB78A830E943F088983811151
:1012200014C0289A29988BB18F709A81907F892B4E
:101230008BB90E942A088BB18F709A819295907F0A
:10124000982B9BB90E942A08289889810F900F90AB
:10125000DF91CF9108950C940609A29FB001B39F2E
:10126000C001A39F700D811D1124911DB29F700DAF
:10127000811D1124911D0895DB018F939F930E947E
:101280008D09BF91AF91A29F800D911DA39F900DDD
:10129000B29F900D11240895A1E21A2EAA1BBB1B28
:1012A000FD010DC0AA1FBB1FEE1FFF1FA217B30732
:1012B000E407F50720F0A21BB30BE40BF50B661F48
:1012C000771F881F991F1A9469F76095709580950C
:1012D00090959B01AC01BD01CF010895052E97FBB0
:1012E0001EF400940E94850957FD07D00E944C0906
:1012F00007FC03D04EF40C94850950954095309529
:1013000021953F4F4F4F5F4F089590958095709571
:1013100061957F4F8F4F9F4F08950E942D09A59F84
:10132000900DB49F900DA49F800D911D11240895E0
:10133000DF93CF931F930F939A9DF02D219FF00D74
:101340008B9DF00D8A9DE02DF10D039FF00D029F06
:10135000E00DF11D4E9DE00DF11D5E9DF00D4F9DC8
:10136000F00D7F936F93BF92AF925F934F93D50130
:101370000E942D098B01AC01D7010E942D09EB01C0
:10138000E80FF91FD6010E94E7092F913F91D6017E
:101390000E942D09C60FD71FE81FF91FAF91BF91FB
:1013A0000E94E7092F913F910E942D09C60FD71F78
:1013B000E81FF91FD6010E942D09E60FF71F9801BB
:1013C000BE01CF010F911F91CF91DF9108950E942F
:1013D0002D09460F571FC81FD91F08F431960895CD
:1013E0002A0D3B1D4C1D5D1D6E1D7F1D801F911F15
:0613F0000895F894FFCF00
:1013F600FFFF5072657373202A20746F2072657325
:101406006574004F564552464C4F57004449562086
:101416004259205A45524F00415343454E54207677
:10142600310043616C63205265616479002B2D782D
:101436002F3000000000000000000000010800023C
:101446002000034000048000050001060004073167
:1014560032334134353642373839432A302344272C
:101466000028000427002800052A002B00022A0075
:061476002B000300400002
:00000001FF
