:100000000C9452000C946F000C946F000C946F00D1
:100010000C946F000C946F000C946F000C946F00A4
:100020000C946F000C946F000C946F000C94710092
:100030000C946F000C946F000C946F000C946F0084
:100040000C946F000C946F000C946F000C946F0074
:100050000C946F000C946F000C946F000C946F0064
:100060000C946F000C946F00000000000000000072
:100070004E780000000180007E306D79335B5F7048
:100080007F7B00000009006500771F4E3D4F475EF3
:1000900037303C370E76157E6773055B0F3E3E3E6C
:1000A000373B6D0011241FBECFEFD8E0DEBFCDBFC0
:1000B00011E0A0E0B1E0E4E5F9E002C005900D92A6
:1000C000AE31B107D9F721E0AEE1B1E001C01D9238
:1000D000AF32B207E1F70E94BA000C94A8040C9466
:1000E00000001F921FB61F9211242F938F939F938E
:1000F000AF93BF9380912B0190912C01A0912D0182
:10010000B0912E010196A11DB11D80932B019093FA
:100110002C01A0932D01B0932E0180912601811511
:1001200001F18091270190912801A0912901B091BE
:100130002A010196A11DB11D8093270190932801EA
:10014000A0932901B0932A0180389D48AB45B105A1
:1001500040F010922701109228011092290110926C
:100160002A01BF91AF919F918F912F911F901FBE38
:100170001F901895CDB7DEB763970FB6F894DEBF22
:100180000FBECDBF209108013091090140910A01B5
:1001900050910B0160910C0170910D0180910E0145
:1001A00090910F010E94E00301E02091170130912E
:1001B00018014091190150911A0160911B01709131
:1001C0001C0180911D010E943A0220911001309182
:1001D000110140911201509113016091140170912D
:1001E0001501809116010E943A028AE080938100F5
:1001F0008FEC97E0909389008093880082E0809351
:100200006F007894F12CD02E10E0902E612C712C80
:1002100023011E014FEF241A340A509108015C8714
:10022000609109016D8770910A017E8780910B01B1
:100230008F8790910C01988BE0910D01E98B2FB77E
:10024000F894C201D30140902B0150902C01609092
:100250002D0170902E01409127015091280160914D
:10026000290170912A01488759876A877B872FBFA8
:1002700084159505A605B70541F187E0E7E1F1E0B2
:10028000D10101900D928A95E1F729813A814B8144
:100290005C816D817E818F810E94B202D1018911C2
:1002A000A4C010E087E0E0E1F1E001900D928A95B2
:1002B000E1F729813A814B815C816D817E818F815B
:1002C0000E94B2028D119FC0F12C688579858A85C4
:1002D0009B8528EE33E040E050E00E9486045B01FD
:1002E000B901CA012CE330E040E050E00E948604EE
:1002F000062FB901CA0124E630E040E050E00E9438
:100300008604862F6AE00E946604E92E805D0E94C2
:10031000530480931E0180E38E0D0E945304E82E47
:100320008EE20E945304E82AE0921F01802F6AE0C7
:100330000E946604092F805D0E945304809320016F
:1003400080E3800F0E945304082F8EE20E94530422
:10035000082B00932101C50164E670E00E9472043D
:1003600080E3860F0E94530480932201C5016AE056
:1003700070E00E947204082FCB016AE070E00E94D6
:100380007204805D0E9453048093230180E3800FF8
:100390000E94530480932401109225018EE1A82E1F
:1003A00081E0B82E60E071E06887798770910E0176
:1003B0007A8B80910F018B8BF501C1905F01E885ED
:1003C000F985E190E887F98700E02C853D854E8529
:1003D0005F85688979898A899B890E943C0346E206
:1003E00051E04A155B0541F72ACF1F5F1F3008F423
:1003F00059CF982E811155CF8091260191E0892700
:10040000809326014ECFF3945FE0F51608F45DCF9C
:10041000D82E811159CF8FB7F894109227011092DE
:1004200028011092290110922A018FBF4DCFCF933E
:10043000DF9300D000D000D00F92CDB7DEB7298374
:100440003A834B835C836D837E838F83E981FA815A
:1004500080819F8121E001C0220F9A95EAF7822BCB
:10046000808327960FB6F894DEBF0FBECDBFDF9115
:10047000CF9108950F93CF93DF9300D000D000D099
:100480000F92CDB7DEB729833A834B835C836D83AC
:100490007E838F83A981BA81EB81FC812C91382FD7
:1004A00081E001C0880F3A95EAF7382F3095232371
:1004B0002C93011569F09081892B808327960FB6C4
:1004C000F894DEBF0FBECDBFDF91CF910F9108959D
:1004D00080818323F2CFCF93DF9300D000D000D070
:1004E0000F92CDB7DEB729833A834B835C836D834C
:1004F0007E838F83EB81FC8180819F8121E001C01D
:10050000220F9A95EAF7822B808327960FB6F894EC
:10051000DEBF0FBECDBFDF91CF910895CF93DF93A4
:1005200000D000D000D00F92CDB7DEB729833A8338
:100530004B835C836D837E838F83EB81FC81208181
:10054000382F81E001C0880F3A95EAF78095822321
:10055000808327960FB6F894DEBF0FBECDBFDF9124
:10056000CF910895CF93DF9300D000D000D00F92A9
:10057000CDB7DEB729833A834B835C836D837E835B
:100580008F83ED81FE81808190E02F8102C095955F
:1005900087952A95E2F7817027960FB6F894DEBF0B
:1005A0000FBECDBFDF91CF91089584B18C6284B925
:1005B00081E58CBD8DB58E7F8DBD08958EBD0DB44A
:1005C00007FEFDCF8EB50895EF92FF920F931F9314
:1005D000CF93DF93CDB7DEB763970FB6F894DEBF46
:1005E0000FBECDBF29873A874B875C876D877E8793
:1005F0008F879A8B988BEB8A88E0FE0139967E0173
:100600009FEFE91AF90AD70101900D928A95E1F757
:1006100029813A814B815C816D817E818F810E942D
:100620008E0210E0E98A8A8918131EC088E0FE0154
:100630003996A989BF2D01900D928A95E1F72981FC
:100640003A814B815C816D817E818F8163960FB68B
:10065000F894DEBF0FBECDBFDF91CF911F910F91F8
:10066000FF90EF900C946B02802F0E94DE028B892A
:100670000E94DE021F5FD7CFCF92DF92EF920F93DF
:100680001F93CF93DF93CDB7DEB762970FB6F89481
:10069000DEBF0FBECDBF29873A874B875C876D874A
:1006A0007E878F87192F988BCA8A091708F049C04F
:1006B00088E0E81608F045C0FE0139966E019FEF0C
:1006C000C91AD90AD60101900D928A95E1F72981BC
:1006D0003A814B815C816D817E818F810E948E0287
:1006E000C98AE3941150011327C08E2D0E94DE02A7
:1006F0008A890E94DE021111F5CF88E0FE01399649
:10070000A989BD2D01900D928A95E1F729813A8141
:100710004B815C816D817E818F8162960FB6F894EA
:10072000DEBF0FBECDBFDF91CF911F910F91EF9034
:10073000DF90CF900C946B0280E00E94DE0280E09C
:10074000D8CF62960FB6F894DEBF0FBECDBFDF9153
:10075000CF911F910F91EF90DF90CF900895EF927E
:100760000F931F93CF93DF93CDB7DEB728970FB6C4
:10077000F894DEBF0FBECDBF29833A834B835C83E1
:100780006D837E838F83988710E01F5FE12C012F9C
:1007900029813A814B815C816D817E818F81988531
:1007A0000E94E402183089F728960FB6F894DEBF4D
:1007B0000FBECDBFDF91CF911F910F91EF900895A4
:1007C000EF920F93CF93DF93CDB7DEB729970FB694
:1007D000F894DEBF0FBECDBF298729833A834B83B0
:1007E0005C836D837E838F8398870E9417022981A3
:1007F0003A814B815C816D817E818F810E946B0289
:100800000E94D502E12C0FE029813A814B815C8165
:100810006D817E818F8198850E94E40209E02981A3
:100820003A814B815C816D817E818F8198850E94A8
:10083000E40287E0E82E0BE029813A814B815C815C
:100840006D817E818F8198850E94E4020AE0298172
:100850003A814B815C816D817E818F8198850E9478
:10086000E40229813A814B815C816D817E818F8197
:1008700098850E94AF03EE24E3940CE029813A812D
:100880004B815C816D817E818F8198850E94E4021D
:1008900029960FB6F894DEBF0FBECDBFDF91CF9182
:1008A0000F91EF900895E82F80EE8E0F9FE99E0F35
:1008B0009A3140F08B3340F4E052FF0BE859FF4F80
:1008C00084910895E82FF8CF80E00895992778E083
:1008D000880F991F961708F0961B881F7A95C9F7FD
:1008E00080950895AA1BBB1B51E107C0AA1FBB1F1F
:1008F000A617B70710F0A61BB70B881F991F5A95AC
:10090000A9F780959095BC01CD010895A1E21A2E1A
:10091000AA1BBB1BFD010DC0AA1FBB1FEE1FFF1FA3
:10092000A217B307E407F50720F0A21BB30BE40BF3
:10093000F50B661F771F881F991F1A9469F760953A
:100940007095809590959B01AC01BD01CF010895F4
:04095000F894FFCF49
:100954000001020304050607240025002300020108
:0E0964002A002B002900072A002B002900067C
:00000001FF
