:100000000C9452000C946F000C946F000C946F00D1
:100010000C946F000C946F000C946F000C946F00A4
:100020000C946F000C946F000C946F000C946F0094
:100030000C946F000C946F000C946F000C946F0084
:100040000C946F000C946F000C946F000C946F0074
:100050000C946F000C946F000C946F000C946F0064
:100060000C946F000C946F00000000000000000072
:100070004E780000000180007E306D79335B5F7048
:100080007F7B00000009006500771F4E3D4F475EF3
:1000900037303C370E76157E6773055B0F3E3E3E6C
:1000A000373B6D0011241FBECFEFD8E0DEBFCDBFC0
:1000B00011E0A0E0B1E0E2EBF6E002C005900D92A5
:1000C000AE31B107D9F721E0AEE1B1E001C01D9238
:1000D000A632B207E1F70E94D0000C9457030C94AB
:1000E0000000E82F80EE8E0F9FE99E0F9A3140F0BE
:1000F0008B3340F4E052FF0BE859FF4F8491089591
:10010000E82FF8CF80E00895EF920F93CF93DF931D
:10011000CDB7DEB72B970FB6F894DEBF0FBECDBFBD
:100120008EE191E08A879B87EFE0F1E0E983FA8333
:10013000F0911701FB83209118012C838091190104
:100140008D8390911A019E83E0911B01EF83F091C2
:100150001C01F88720911D012987EA85FB85E19024
:10016000EA87FB87E981FA810191E983FA832B8190
:100170003C814D815E816F81788589850E94F70180
:100180008A859B858652914041F72B960FB6F8944D
:10019000DEBF0FBECDBFDF91CF910F91EF900895DD
:1001A000CDB7DEB7C758D1090FB6F894DEBF0FBE82
:1001B000CDBF0E94B10220911701309118014091EA
:1001C000190150911A0160911B0170911C018091DD
:1001D0001D010E9445026E0121E4C20ED11C8091D6
:1001E0001701CF57DF4F8883C158D0409091180135
:1001F000CE57DF4F9883C258D040A0911901CD57F8
:10020000DF4FA883C358D040B0911A01CC57DF4FBD
:10021000B883C458D040E0911B01CB57DF4FE8832F
:10022000C558D040F0911C01CA57DF4FF883C6581B
:10023000D04020911D01C957DF4F2883C758D040B7
:1002400080E091E00E94D0020E94C9028D30E1F36B
:100250008A30D1F3712C9FE3791638F4F601E70D5B
:10026000F11D808373940E94C2020E94C9028D30E6
:1002700011F08A3081F7A72CB12CF601E70DF11DA2
:1002800010827E01AFEFEA1AFA0A47018601802F39
:100290008C198715A8F0B9E07B16D8F4EEE1F1E0EF
:1002A00080E090E0871510F4D7019C9191938F5FC7
:1002B000BFEFEB1AFB0A8830A1F70E948400C0CF81
:1002C000F80181918F010E947100D4018D934D013D
:1002D000DECF4501E8E08E0E911C80E090E08C01BD
:1002E00008501109EEE1F1E017FD4DC00A151B059C
:1002F0000CF049C0D701A00FB11F2C9121930F5FC3
:100300001F4F0817190781F70E948400FFEF24E3AD
:100310008CE0F15020408040E1F700C00000C801AF
:10032000019688169906DCF69FEFA7E8B3E1915095
:10033000A040B040E1F700C00000CF57DF4F288158
:10034000C158D040CE57DF4F3881C258D040CD572A
:10035000DF4F4881C358D040CC57DF4F5881C45835
:10036000D040CB57DF4F6881C558D040CA57DF4FC8
:100370007881C658D040C957DF4F8881C758D040D0
:100380000E9418025DCF20E0B9CFEF920F93CF9378
:10039000DF93CDB7DEB729970FB6F894DEBF0FBE57
:1003A000CDBF2887298339873A834B835C836D834C
:1003B0007E838F830E9433030EBD0DB407FEFDCFF5
:1003C000EEBC0DB407FEFDCF29813A814B815C81E3
:1003D0006D817E818F8129960FB6F894DEBF0FBEA6
:1003E000CDBFDF91CF910F91EF900C941003EF925E
:1003F0000F93CF93DF9300D000D000D00F92CDB7F2
:10040000DEB729833A834B835C836D837E838F833E
:10041000083018F40F5F0E94C50127960FB6F894B4
:10042000DEBF0FBECDBFDF91CF910F91EF9008954A
:10043000EF920F931F93CF93DF9300D000D000D0A3
:100440000F92CDB7DEB729833A834B835C836D83EC
:100450007E838F8310E01F5FE12C012F29813A8179
:100460004B815C816D817E818F810E94C501183036
:1004700091F727960FB6F894DEBF0FBECDBFDF9180
:10048000CF911F910F91EF900895EF920F93CF931B
:10049000DF9300D000D000D00F92CDB7DEB7298314
:1004A0003A834B835C836D837E838F830E94ED024E
:1004B00029813A814B815C816D817E818F810E948F
:1004C000100384B1886284B981E58CBDE12C0FE012
:1004D00029813A814B815C816D817E818F810E946F
:1004E000C50109E029813A814B815C816D817E8162
:1004F0008F810E94C50187E0E82E0BE029813A81B7
:100500004B815C816D817E818F810E94C5010AE0F3
:1005100029813A814B815C816D817E818F810E942E
:10052000C50129813A814B815C816D817E818F81FA
:100530000E941802EE24E3940CE029813A814B8159
:100540005C816D817E818F810E94C50127960FB6E7
:10055000F894DEBF0FBECDBFDF91CF910F91EF902A
:1005600008951092C50087E68093C400E0ECF0E0A7
:1005700080818D7F808388E18093C10086E08093B5
:10058000C20008959091C00095FFFCCF8093C600F3
:1005900008958091C00087FFFCCF8091C600089528
:1005A000CF93DF9300D00F92CDB7DEB789839A83C4
:1005B0001B82E981FA818B81E80FF11D8081811115
:1005C00006C00F900F900F90DF91CF9108950E9479
:1005D000C2028B818F5F8B83ECCFCF93DF9300D0F0
:1005E00000D000D00F92CDB7DEB729833A834B837A
:1005F0005C836D837E838F83E981FA8180819F8113
:1006000021E001C0220F9A95EAF7822B808327967A
:100610000FB6F894DEBF0FBECDBFDF91CF91089526
:10062000CF93DF9300D000D000D00F92CDB7DEB7CC
:1006300029833A834B835C836D837E838F83EB8135
:10064000FC8180819F8121E001C0220F9A95EAF709
:10065000822B808327960FB6F894DEBF0FBECDBFE6
:10066000DF91CF910895CF93DF9300D000D000D0D9
:100670000F92CDB7DEB729833A834B835C836D83BA
:100680007E838F83EB81FC812081382F81E001C044
:10069000880F3A95EAF780958223808327960FB6D4
:1006A000F894DEBF0FBECDBFDF91CF910895F894CF
:0206B000FFCF7A
:1006B2000D0A456E74657220746578743A200000E4
:0E06C2000102030405060724002500230002A0
:00000001FF
