:100000000C944A000C9467000C9467000C946700F1
:100010000C9467000C9467000C9467000C946700C4
:100020000C9467000C9467000C9467000C946700B4
:100030000C9467000C9467000C9436060C946700CF
:100040000C9467000C9467000C9467000C94670094
:100050000C9467000C9467000C9467000C94670084
:100060000C9467000C946700E8033C00E2043C0039
:10007000DC053C00D6063C00D0075A00DC051E001B
:10008000C8009001E8035000DC055000D007500084
:10009000D007140011241FBECFEFD8E0DEBFCDBFC4
:1000A00011E0A0E0B1E0E4EEF3E102C005900D92B2
:1000B000A03EB107D9F722E0A0EEB1E001C01D9249
:1000C000AA30B207E1F70E94A9050C94DA090C9452
:1000D000000010920D0110920E0110920F0110926B
:1000E0001001109211018FEF8093160110921701E9
:1000F000109218011092190110921A0110921B010E
:100100000895DF92EF92FF920F931F93CF93DF93A7
:1001100000D000D000D0CDB7DEB78E010F5F1F4FEB
:1001200082E0E82E81E0F82ED12C0D831E83809191
:100130001101D816C8F5809116018D1133C00E94A7
:1001400059062091170130911801409119015091E1
:100150001A01621773078407950720F5F701838555
:10016000F80181938F01D394FFEFEF1AFF0A84E027
:10017000D812DDCF40910001509101016091110131
:100180008D819E810E94E3060F900F900F900F903B
:100190000F900F90DF91CF911F910F91FF90EF90F3
:1001A000DF9008958AE2DCCF80E2DACF80911B01F4
:1001B000811599F00E94590620911701309118017C
:1001C0004091190150911A0162177307840795072E
:1001D00020F010921B010C9481000895CF93C82F3A
:1001E00080E00E94F60480E00E94FE04C0930201B9
:1001F0000E945906609304017093050180930601E3
:10020000909307018FEF80931C01CB3008F060C002
:10021000EC2FF0E0E452F64F0C949E09CF910C9431
:10022000CB068FE191E080930001909301010E9441
:100230006900CF910C94810081E00E94F60463E094
:1002400084E890E00E94E3038AE080931C01CF9150
:100250000C942E0784EF91E00E94430561E080E852
:1002600090E00E94E30380910C01CF910C947A07F7
:1002700088EE93E00E9408058EE180931C01CF91E7
:100280000C94BE078AE291E0CECF87E391E0CBCF1A
:1002900080E491E0C8CF80ED97E00E94230565E0FF
:1002A00088E690E00E94E303CF910C940A0880ED69
:1002B00097E00E94430561E080E890E00E94E3033C
:1002C000CF910C941B080E946900CF910C942C08CC
:1002D000CF910895CF93C82F811509F46AC0823059
:1002E00061F4943409F065C080910201813009F015
:1002F00060C085E0CF910C94EE00813009F059C0C8
:1003000080ED890F8A3030F580911101843008F03A
:1003100050C0E82FF0E0EE5FFE4F93878093160108
:100320000E945906DC01CB0188539F4FAF4FBF4F4E
:100330008093170190931801A0931901B0931A01AB
:10034000C0931B01809111018F5F80931101CF91A8
:100350000C948100923499F480911101811549F136
:10036000815080931101E82FF0E0EE5FFE4F13867D
:10037000909116018913EBCF10921B01E8CF9334B3
:1003800019F40E946900E3CF913499F4C0911101EE
:10039000C43031F061E080E890E0CF910C94E30349
:1003A000809102018630C9F030F4813041F185300E
:1003B000E1F1CF910895EDE0F1E08730D1F791912F
:1003C000848198133AC081E0E131F807C1F782E1F6
:1003D00091E00E94100688E08DCF80910D018093FE
:1003E000120180910E018093130180910F0180937F
:1003F0001401809110018093150187E07BCF8DE07F
:1004000091E00E94E605811529F083E080930C01BC
:1004100082E070CF80910C01811529F0815080938A
:100420000C018111C3E08C2F65CF8DE091E00E941B
:10043000E605811511F086E05DCF89E05BCFCF92B4
:10044000DF92EF92FF920F931F93CF93DF9300D031
:10045000CDB7DEB70E94E8048A8399838115B1F095
:100460000E945906609308017093090180930A0164
:1004700090930B01809102018A3041F481E09091C8
:100480000301913009F080E00E94EE00E09102014A
:10049000EB3008F06BC0F0E0E951F64F0C949E0988
:1004A000CA80C11469F081E00E94EE008A819981BE
:1004B0000E946A0180910201813079F50E94D60084
:1004C000809102018A3009F4DCC0843009F4D9C07B
:1004D0000E945906009108011091090120910A011A
:1004E00030910B01601B710B820B930B60337547CE
:1004F0008105910508F4C5C0809102018093030134
:100500008AE00F900F90DF91CF911F910F91FF9094
:10051000EF90DF90CF900C94EE008550833080F602
:10052000CDCFDA80D11469F00E945906609304019E
:100530007093050180930601909307018FEF8093DC
:100540001C010E945906C0900401D0900501E09062
:100550000601F09007018B019C010C191D092E0961
:100560003F09003117422105310510F080E034C009
:10057000860197010950154D2F4F3F4F68017901B2
:10058000C61AD70AE80AF90AB601C70128EE33E00D
:1005900040E050E00E947C09822F90911C0192174C
:1005A00009F48ECF20931C010E942E0789CF0E9450
:1005B0005906009104011091050120910601309126
:1005C0000701601B710B820B930B683E7340810522
:1005D000910508F475CF81E00E94EE0071CF0E9472
:1005E0005906C0900401D0900501E0900601F090FA
:1005F00007018B019C010C191D092E093F090033CD
:1006000015472105310520F083E080930C01E3CFED
:1006100086019701095E16482F4F3F4F6801790107
:10062000C61AD70AE80AF90AB601C70128EE33E06C
:1006300040E050E00E947C09822F90911C019217AB
:1006400009F43ECF20931C010E94BE0761E08CE7B5
:1006500090E00E94E30334CF0E9459060091040108
:10066000109105012091060130910701601B710B6B
:10067000820B930B603D77408105910508F420CFF4
:1006800075CF0F900F90DF91CF911F910F91FF9039
:10069000EF90DF90CF9008951092B1001092B000CB
:1006A00023981092E4011092E1010895EF92FF92D5
:1006B0000F931F93CF93DF9300D000D0CDB7DEB759
:1006C0007C0169837A83892B61F40F900F900F90DE
:1006D0000F90DF91CF911F910F91FF90EF900C94AD
:1006E0004C03239A0CE711E01B821C82F801208145
:1006F0003181D7010E9461099B01AC01220F331F98
:10070000441F551F60E074E284EF90E00E947C0972
:10071000C901DA010197A109B1099A2B9B2B99F51F
:100720002150EB81FC81EE0FFF1F8B819C81E80F34
:10073000F91FE458FE4F82811092B10092E4909329
:10074000B0002093B3008093B1000E945906298124
:100750003A81620F731F811D911D6093E5017093B3
:10076000E6018093E7019093E80181E08093E40142
:100770000F900F900F900F90DF91CF911F910F91DD
:10078000FF90EF900895EB81FC813196EB83FC8321
:100790000D5F1F4F369709F0A9CF87E020E0CCCF3F
:1007A00024E0829FC00111242091E2013091E301F5
:1007B000280F391FF90185919591F90132966591BC
:1007C00075910C945603009711F0611102C00C94BE
:1007D0004C038093E2019093E3016093E101109256
:1007E000E00180E00C94D0038091E4018115E1F0F8
:1007F0000E9459062091E5013091E6014091E70100
:100800005091E801621773078407950768F080919B
:10081000E0018F5F9091E101891720F48093E0015E
:100820000C94D0030C944C03089587B1807F87B952
:1008300088B18F6088B9EEE9F1E041E050E0A08135
:10084000B1812C918481BA0101C0660F8A95EAF7C3
:10085000862F922F962B9C93A281B3819C91892BFA
:100860008C93359671E0E23BF70749F70895CF93F3
:10087000DF9345E050E060E070E081EF91E00E949E
:100880006506811509F463C0EEE9F1E080E041E01E
:1008900050E0A281B3816C912481EA0101C0CC0FA8
:1008A0002A95EAF72C2F9C2F909596239C93D5E3BD
:1008B000DA95F1F7000096B19F703C91232B2C93B1
:1008C0009F3009F44FC02FE092272FEF290F2923E3
:1008D00009F04DC090FF3EC0880F880F820F9091A5
:1008E0001E01981346C09091F001933008F047C064
:1008F0009F5F9093F001933009F441C080911D01F6
:100900008F3F29F18091EB01811121C00E9459068E
:100910002091EC013091ED014091EE015091EF01F9
:10092000621B730B840B950B683E73408105910528
:1009300070F081E08093EB01E0911D0182E08093F3
:10094000E901F0E0E257FE4F80818093EA01DF91F8
:10095000CF91089521E091FDBFCF23E092FFBCCF5E
:1009600022E0BACF8F5F3596843009F092CF8FEFB7
:10097000B6CF80931E0181E08093F001BFCFE0915C
:100980001D01E81709F4BACF80931D018F3F69F06C
:100990000E9459066093EC017093ED018093EE0183
:1009A0009093EF011092EB01A9CF8091EB0181119F
:1009B000CECF81E08093E901F0E0E257FE4F8081E5
:1009C0008093EA0161E080E990E00E94E30396CF22
:1009D0008091E9019091EA011092E9011092EA01F7
:1009E0000895249A259A2C982D9808951092FE0126
:1009F000811511F02C9A08952C98089510920502F3
:100A00001092F901811511F02D9A08952D980895ED
:100A1000009721F4109205022D9808951092F90183
:100A200021E02093050280930302909304020E9428
:100A300059066093FF017093000280930102909326
:100A400002022D9A0895CF93DF9300D0CDB7DEB781
:100A500089839A832C9A81E08093FE010E94590633
:100A600029813A81620F731F811D911D6093FA01E4
:100A70007093FB018093FC019093FD010F900F9008
:100A8000DF91CF910895CF93DF9300D0CDB7DEB73C
:100A900089839A83109205022D9A81E08093F9014F
:100AA0000E94590629813A81620F731F811D911D91
:100AB0006093F5017093F6018093F7019093F8012C
:100AC0000F900F90DF91CF9108958091FE018115D5
:100AD00091F00E9459062091FA013091FB0140915A
:100AE000FC015091FD01621773078407950718F008
:100AF0002C981092FE018091F901811599F00E94C5
:100B000059062091F5013091F6014091F70150917D
:100B1000F8016217730784079507D0F02D9810929B
:100B2000F901089580910502811591F04091030229
:100B3000509104025695479560E070E08FEF91E088
:100B40000E946506811521F085B190E2892785B95B
:100B500008950E942D060E94A4080E94C6060E94C5
:100B600015040E94F1040E94C205789480E00E945E
:100B7000EE000E9437040E94F4030E9465050E9463
:100B80001F02F7CF0F931F93CF93DF9384E090E082
:100B90000E94AC09813A9C44A1F061EA7CE484E0C3
:100BA00090E00E94C409C2EBD1E000E010E069913E
:100BB000C8010E94B2090F5F1F4F81E0C63BD807F2
:100BC000B1F7DF91CF911F910F910895CF92DF92EE
:100BD000EF92FF920F931F93CF93DF93EC0180E08E
:100BE000E82E80E0F82E6E0184E0C80ED11C10E0E3
:100BF0000991C7010E94A4090827102B8FEFE81A5A
:100C0000F80ACC16DD06A1F781E0111180E0DF9132
:100C1000CF911F910F91FF90EF90DF90CF900895AB
:100C2000EF92FF920F931F93CF93DF93EC0100E0BD
:100C300010E07C0184E0E80EF11C6991C8010E947B
:100C4000B2090F5F1F4FCE15DF05B9F7DF91CF91C6
:100C50001F910F91FF90EF90089582E084BD93E083
:100C600095BD99EF97BD80936E0008951F921FB6B2
:100C70001F9211248F939F93AF93BF93809106028D
:100C800090910702A0910802B09109020196A11D5E
:100C9000B11D8093060290930702A0930802B093BF
:100CA0000902BF91AF919F918F911F901FBE1F901E
:100CB00018952FB7F8946091060270910702809101
:100CC0000802909109022FBF0895CF92DF92EF9210
:100CD000FF920F931F93CF93DF93EC016A017B0187
:100CE0000E945906088119812A813B81AB01BC0110
:100CF000401B510B620B730B80E04C155D056E05BC
:100D00007F0558F0C801D9018C0D9D1DAE1DBF1D7A
:100D100088839983AA83BB8381E0DF91CF911F9160
:100D20000F91FF90EF90DF90CF9008950F931F9356
:100D3000CF93DF9300D00F92CDB7DEB78B8349837B
:100D40005A830E94F50809811A81F8018081811572
:100D5000C9F0FB81F03141F40F900F900F90DF91BB
:100D6000CF911F910F9108950F5F1F4F0E9434097B
:100D70008B818F5F8B83E9CF80E20E9434098B8166
:100D80008F5F8B839B819031B9F7E6CF66ED71E081
:100D900080E00C94360960E080E00E94F50880E075
:100DA0000E9434094DE451E060E081E00E94960623
:100DB0004FE151E061E080E00E94960640E060E093
:100DC00081E00C9404091F93CF93DF93CDB7DEB776
:100DD00061970FB6F894DEBF0FBECDBFFC01162F92
:100DE0008BE5898380818A8381818B8382818C8357
:100DF00083818D838DE58E8380E28F83888790E564
:100E000099879FE69A8793E79B879AE39C878D87CC
:100E100080E3860F8E878FE28F8784E3888B198A21
:100E200060E080E00E949606AE014F5F5F4F61E098
:100E300080E00E94960661E081E0810F0E94F50843
:100E400041E061E081E061960FB6F894DEBF0FBE2D
:100E5000CDBFDF91CF911F910C940409CF93DF9305
:100E6000CDB7DEB761970FB6F894DEBF0FBECDBF2A
:100E700020E0422F50E0FA01E653FE4F9081FE0140
:100E80003196E40FF51F911132C06AE00E9470099B
:100E9000392F0E947009905D9083305D318382E02C
:100EA000820FFE013196E80FF11D83E780832D5FED
:100EB000FE013196E20FF11D108244E551E060E041
:100EC00080E00E949606AE014F5F5F4F61E080E0D8
:100ED0000E94960640E060E081E061960FB6F894CB
:100EE000DEBF0FBECDBFDF91CF910C94040990837C
:100EF0002F5FBFCFCF93DF93CDB7DEB761970FB62C
:100F0000F894DEBF0FBECDBF20E0422F50E0FA01C3
:100F1000E354FE4F9081FE013196E40FF51F9111CD
:100F20002AC06AE00E947009392F0E947009905D02
:100F30009083305D31832E5FFE013196E20FF11D0B
:100F400010824DE551E060E080E00E949606AE011F
:100F50004F5F5F4F61E080E00E94960640E060E0F6
:100F600081E061960FB6F894DEBF0FBECDBFDF9172
:100F7000CF910C94040990832F5FC7CFCF93DF9359
:100F8000CDB7DEB761970FB6F894DEBF0FBECDBF09
:100F900020E0422F50E0FA01EA54FE4F9081FE011A
:100FA0003196E40FF51F911132C06AE00E9470097A
:100FB000392F0E947009905D9083305D318382E00B
:100FC000820FFE013196E80FF11D83E780832D5FCC
:100FD000FE013196E20FF11D108246E551E060E01E
:100FE00080E00E949606AE014F5F5F4F61E080E0B7
:100FF0000E94960640E060E081E061960FB6F894AA
:10100000DEBF0FBECDBFDF91CF910C94040990835A
:101010002F5FBFCF47E651E060E080E00E94960678
:101020004CE451E061E080E00E94960640E060E020
:1010300081E00C94040943E751E060E080E00E9405
:1010400096064CE451E061E080E00E94960640E0A4
:1010500060E081E00C9404090E94980840E060E0A0
:1010600080E00C9404092A9A85E08A95F1F7000043
:101070002A9885E08A95F1F7000008952898299824
:101080009BB19F708295807F892B8BB90C9433081C
:101090008AB18F708AB98BB18F708BB92898299AD1
:1010A00080E29EE42A9A25E02A95F1F7000029B112
:1010B0002A9835E03A95F1F700002A9A35E03A95FA
:1010C000F1F7000039B12A9835E03A95F1F70000C0
:1010D00027FF08C0019731F782E09AB1906F9AB963
:1010E0002998089580E0F9CFCF93DF9300D0CDB752
:1010F000DEB78A830E9448088983811113C028982B
:1011000029988BB18F709A81907F892B8BB90E941F
:1011100033088BB18F709A819295907F982B9BB9F1
:101120000E94330889810F900F90DF91CF9108952D
:1011300081E00E947408811106C0EFE3FFE131975E
:10114000F1F700C000000895209A219A229A8AB1EE
:10115000806F8AB9289829982A988BB18F708BB99B
:101160002FEF80E792E0215080409040E1F700C0EF
:10117000000083E00E943E088FE19EE40197F1F7B2
:1011800000C0000083E00E943E088FE193E00197D9
:10119000F1F700C0000083E00E943E088FE193E079
:1011A0000197F1F700C0000082E00E943E088FE145
:1011B00093E00197F1F700C0000088E20E947408F4
:1011C000811111C088E00E94740881110CC00E9436
:1011D0009808811108C086E00E947408811103C03C
:1011E0008CE00C94740882E00895803158F46230E9
:1011F00048F4E62FF0E0E252FE4F9081890F8068BC
:101200000C94740881E00895811107C088E0611191
:101210008260411181600C9474088CE0F8CFCF9308
:10122000DF9300D0CDB7DEB78A830E944808898358
:10123000811114C0289A29988BB18F709A81907F60
:10124000892B8BB90E9433088BB18F709A8192954C
:10125000907F982B9BB90E943308289889810F9022
:101260000F90DF91CF9108950C940F090F931F9366
:10127000CF93DF93EB01883010F5209701F1880FB1
:10128000880F880F80640E9474088E01085F1F4FCA
:10129000811531F082E0DF91CF911F910F91089578
:1012A00089910E940F09C017D10791F78111F2CFE0
:1012B00080E8DF91CF911F910F910C94740881E029
:1012C000EACFA29FB001B39FC001A39F700D811D03
:1012D0001124911DB29F700D811D1124911D08953F
:1012E000992778E0880F991F961708F0961B881F9A
:1012F0007A95C9F780950895A1E21A2EAA1BBB1B07
:10130000FD010DC0AA1FBB1FEE1FFF1FA217B307D1
:10131000E407F50720F0A21BB30BE40BF50B661FE7
:10132000771F881F991F1A9469F7609570958095AB
:1013300090959B01AC01BD01CF010895EE0FFF1FF9
:101340000590F491E02D0994F999FECF92BD81BDED
:10135000F89A992780B50895A8E1B0E042E050E0FE
:101360000C94CC09262FF999FECF92BD81BDF89A35
:10137000019700B4021639F01FBA20BD0FB6F894D9
:10138000FA9AF99A0FBE08950196272F0E94B30981
:101390000C94B209DC01CB01FC01F999FECF06C027
:1013A000F2BDE1BDF89A319600B40D924150504023
:1013B000B8F70895F894FFCF0E0111011C012A011E
:1013C00038014201450148014B01570163015002B8
:1013D00056029102D702EF025602560256022C0321
:0413E0002C03600278
:1013E4004C010000000000000000000003000000A9
:1013F40000000000000000000000000000FFFF45A6
:101404006E7465722050494E3A0043757272656E6F
:10141400742050494E3A004E65772050494E3A00A8
:10142400436F6E6669726D2050494E3A0020414EFA
:1014340056494C00554E4C4F434B45440057524F70
:101444004E472050494E0050494E204348414E4794
:101454004544004D49534D4154434800080002207F
:101464000003400004800005000106000407313237
:10147400334134353642373839432A302344270040
:1014840028000427002800052A002B00022A002B2C
:10149400000331323334576169743A20005472695D
:1014A4006573206C6566743A20004175746F2D6C09
:1014B4006F636B3A20000E11111F1B111F000040B7
:00000001FF
